{
  "_format": "hh-sol-artifact-1",
  "contractName": "Market",
  "sourceName": "contracts/Market.sol",
  "abi": [
    {
      "inputs": [],
      "stateMutability": "nonpayable",
      "type": "constructor"
    },
    {
      "anonymous": false,
      "inputs": [
        {
          "indexed": true,
          "internalType": "uint256",
          "name": "itemId",
          "type": "uint256"
        },
        {
          "indexed": true,
          "internalType": "address",
          "name": "nftContract",
          "type": "address"
        },
        {
          "indexed": true,
          "internalType": "uint256",
          "name": "tokenId",
          "type": "uint256"
        },
        {
          "indexed": false,
          "internalType": "address",
          "name": "seller",
          "type": "address"
        },
        {
          "indexed": false,
          "internalType": "address",
          "name": "owner",
          "type": "address"
        },
        {
          "indexed": false,
          "internalType": "uint256",
          "name": "price",
          "type": "uint256"
        },
        {
          "indexed": false,
          "internalType": "bool",
          "name": "sold",
          "type": "bool"
        }
      ],
      "name": "MarketItemCreated",
      "type": "event"
    },
    {
      "inputs": [],
      "name": "auction_addr",
      "outputs": [
        {
          "internalType": "address",
          "name": "",
          "type": "address"
        }
      ],
      "stateMutability": "view",
      "type": "function"
    },
    {
      "inputs": [
        {
          "internalType": "address",
          "name": "nftContract",
          "type": "address"
        },
        {
          "internalType": "uint256",
          "name": "tokenId",
          "type": "uint256"
        },
        {
          "internalType": "uint256",
          "name": "price",
          "type": "uint256"
        },
        {
          "internalType": "bool",
          "name": "_isAuction",
          "type": "bool"
        },
        {
          "internalType": "uint256",
          "name": "_endingUnix",
          "type": "uint256"
        }
      ],
      "name": "createMarketItem",
      "outputs": [],
      "stateMutability": "payable",
      "type": "function"
    },
    {
      "inputs": [
        {
          "internalType": "address",
          "name": "nftContract",
          "type": "address"
        },
        {
          "internalType": "uint256",
          "name": "itemId",
          "type": "uint256"
        }
      ],
      "name": "createMarketSale",
      "outputs": [],
      "stateMutability": "payable",
      "type": "function"
    },
    {
      "inputs": [],
      "name": "fetchItemsCreated",
      "outputs": [
        {
          "components": [
            {
              "internalType": "uint256",
              "name": "itemId",
              "type": "uint256"
            },
            {
              "internalType": "address",
              "name": "nftContract",
              "type": "address"
            },
            {
              "internalType": "uint256",
              "name": "tokenId",
              "type": "uint256"
            },
            {
              "internalType": "address payable",
              "name": "seller",
              "type": "address"
            },
            {
              "internalType": "address payable",
              "name": "owner",
              "type": "address"
            },
            {
              "internalType": "uint256",
              "name": "price",
              "type": "uint256"
            },
            {
              "internalType": "bool",
              "name": "sold",
              "type": "bool"
            },
            {
              "internalType": "bool",
              "name": "isAuction",
              "type": "bool"
            }
          ],
          "internalType": "struct Market.MarketItem[]",
          "name": "",
          "type": "tuple[]"
        }
      ],
      "stateMutability": "view",
      "type": "function"
    },
    {
      "inputs": [],
      "name": "fetchMarketItems",
      "outputs": [
        {
          "components": [
            {
              "internalType": "uint256",
              "name": "itemId",
              "type": "uint256"
            },
            {
              "internalType": "address",
              "name": "nftContract",
              "type": "address"
            },
            {
              "internalType": "uint256",
              "name": "tokenId",
              "type": "uint256"
            },
            {
              "internalType": "address payable",
              "name": "seller",
              "type": "address"
            },
            {
              "internalType": "address payable",
              "name": "owner",
              "type": "address"
            },
            {
              "internalType": "uint256",
              "name": "price",
              "type": "uint256"
            },
            {
              "internalType": "bool",
              "name": "sold",
              "type": "bool"
            },
            {
              "internalType": "bool",
              "name": "isAuction",
              "type": "bool"
            }
          ],
          "internalType": "struct Market.MarketItem[]",
          "name": "",
          "type": "tuple[]"
        }
      ],
      "stateMutability": "view",
      "type": "function"
    },
    {
      "inputs": [],
      "name": "fetchMyNFTs",
      "outputs": [
        {
          "components": [
            {
              "internalType": "uint256",
              "name": "itemId",
              "type": "uint256"
            },
            {
              "internalType": "address",
              "name": "nftContract",
              "type": "address"
            },
            {
              "internalType": "uint256",
              "name": "tokenId",
              "type": "uint256"
            },
            {
              "internalType": "address payable",
              "name": "seller",
              "type": "address"
            },
            {
              "internalType": "address payable",
              "name": "owner",
              "type": "address"
            },
            {
              "internalType": "uint256",
              "name": "price",
              "type": "uint256"
            },
            {
              "internalType": "bool",
              "name": "sold",
              "type": "bool"
            },
            {
              "internalType": "bool",
              "name": "isAuction",
              "type": "bool"
            }
          ],
          "internalType": "struct Market.MarketItem[]",
          "name": "",
          "type": "tuple[]"
        }
      ],
      "stateMutability": "view",
      "type": "function"
    },
    {
      "inputs": [],
      "name": "getListingPrice",
      "outputs": [
        {
          "internalType": "uint256",
          "name": "",
          "type": "uint256"
        }
      ],
      "stateMutability": "view",
      "type": "function"
    }
  ],
  "bytecode": "0x60806040526658d15e1762800060045534801561001b57600080fd5b506001600055600380546001600160a01b0319163317905560405161003f90610081565b604051809103906000f08015801561005b573d6000803e3d6000fd5b50600580546001600160a01b0319166001600160a01b039290921691909117905561008e565b6118368061127c83390190565b6111df8061009d6000396000f3fe6080604052600436106100705760003560e01c8063796154e81161004e578063796154e8146100d3578063c23b139e146100e8578063dcaea724146100fb578063f064c32e1461012357600080fd5b80630f08efe01461007557806312e85585146100a0578063202e3740146100be575b600080fd5b34801561008157600080fd5b5061008a610138565b6040516100979190611082565b60405180910390f35b3480156100ac57600080fd5b50600454604051908152602001610097565b3480156100ca57600080fd5b5061008a6102f1565b6100e66100e1366004610ffd565b6104e8565b005b6100e66100f6366004610fd2565b61088a565b34801561010757600080fd5b506005546040516001600160a01b039091168152602001610097565b34801561012f57600080fd5b5061008a610d74565b6060600061014560015490565b9050600061015260025490565b60015461015f919061113b565b90506000808267ffffffffffffffff81111561018b57634e487b7160e01b600052604160045260246000fd5b6040519080825280602002602001820160405280156101c457816020015b6101b1610f6b565b8152602001906001900390816101a95790505b50905060005b848110156102e85760006006816101e2846001611123565b81526020810191909152604001600020600401546001600160a01b031614156102d6576000610212826001611123565b600081815260066020818152604092839020835161010080820186528254825260018301546001600160a01b039081169483019490945260028301549582019590955260038201548316606082015260048201549092166080830152600581015460a08301529182015460ff808216151560c0840152939004909216151560e08301528551929350918590879081106102bb57634e487b7160e01b600052603260045260246000fd5b60209081029190910101526102d1600186611123565b945050505b806102e081611152565b9150506101ca565b50949350505050565b606060006102fe60015490565b905060008060005b8381101561036157336006600061031e846001611123565b81526020810191909152604001600020600401546001600160a01b0316141561034f5761034c600184611123565b92505b8061035981611152565b915050610306565b5060008267ffffffffffffffff81111561038b57634e487b7160e01b600052604160045260246000fd5b6040519080825280602002602001820160405280156103c457816020015b6103b1610f6b565b8152602001906001900390816103a95790505b50905060005b848110156102e85733600660006103e2846001611123565b81526020810191909152604001600020600401546001600160a01b031614156104d6576000610412826001611123565b600081815260066020818152604092839020835161010080820186528254825260018301546001600160a01b039081169483019490945260028301549582019590955260038201548316606082015260048201549092166080830152600581015460a08301529182015460ff808216151560c0840152939004909216151560e08301528551929350918590879081106104bb57634e487b7160e01b600052603260045260246000fd5b60209081029190910101526104d1600186611123565b945050505b806104e081611152565b9150506103ca565b600260005414156105405760405162461bcd60e51b815260206004820152601f60248201527f5265656e7472616e637947756172643a207265656e7472616e742063616c6c0060448201526064015b60405180910390fd5b6002600055826105925760405162461bcd60e51b815260206004820152601c60248201527f5072696365206d757374206265206174206c65617374203120776569000000006044820152606401610537565b81156106345760055460405163610bea6b60e11b815260048101859052602481018390526001600160a01b038781166044830152606482018790523360848301529091169063c217d4d69060a401602060405180830381600087803b1580156105fa57600080fd5b505af115801561060e573d6000803e3d6000fd5b505050506040513d601f19601f82011682018060405250810190610632919061106a565b505b610642600180546001019055565b600061064d60015490565b9050604051806101000160405280828152602001876001600160a01b03168152602001868152602001336001600160a01b0316815260200160006001600160a01b03168152602001858152602001600015158152602001841515815250600660008381526020019081526020016000206000820151816000015560208201518160010160006101000a8154816001600160a01b0302191690836001600160a01b031602179055506040820151816002015560608201518160030160006101000a8154816001600160a01b0302191690836001600160a01b0316021790555060808201518160040160006101000a8154816001600160a01b0302191690836001600160a01b0316021790555060a0820151816005015560c08201518160060160006101000a81548160ff02191690831515021790555060e08201518160060160016101000a81548160ff021916908315150217905550905050856001600160a01b03166323b872dd3330886040518463ffffffff1660e01b81526004016107f4939291906001600160a01b039384168152919092166020820152604081019190915260600190565b600060405180830381600087803b15801561080e57600080fd5b505af1158015610822573d6000803e3d6000fd5b505060408051338152600060208201819052818301899052606082015290518893506001600160a01b038a16925084917f045dfa01dcba2b36aba1d3dc4a874f4b0c5d2fbeb8d2c4b34a7d88c8d8f929d1919081900360800190a45050600160005550505050565b600260005414156108dd5760405162461bcd60e51b815260206004820152601f60248201527f5265656e7472616e637947756172643a207265656e7472616e742063616c6c006044820152606401610537565b6002600081815582815260066020818152604092839020835161010080820186528254825260018301546001600160a01b0390811694830194909452958201549481019490945260038101548216606085015260048101549091166080840152600581015460a0840152015460ff808216151560c084015292900490911615801560e0830152610be957600554604082810151905163c76659a160e01b81526001600160a01b038681166004830152602482019290925291169063c76659a19060440160206040518083038186803b1580156109b857600080fd5b505afa1580156109cc573d6000803e3d6000fd5b505050506040513d601f19601f820116820180604052508101906109f0919061104e565b1515600114610a415760405162461bcd60e51b815260206004820152601b60248201527f746869732041756374696f6e20697320696e2070726f677265737300000000006044820152606401610537565b604081810151600554915163299c2a6d60e21b81526001600160a01b038681166004830152602482018390529192600092169063a670a9b49060440160206040518083038186803b158015610a9557600080fd5b505afa158015610aa9573d6000803e3d6000fd5b505050506040513d601f19601f82011682018060405250810190610acd9190610faf565b600554604051633d23bf5f60e21b8152600481018590526001600160a01b03888116602483015233604483015292935091169063f48efd7c90606401600060405180830381600087803b158015610b2357600080fd5b505af1158015610b37573d6000803e3d6000fd5b50506040516323b872dd60e01b81523060048201526001600160a01b03848116602483015260448201869052881692506323b872dd9150606401600060405180830381600087803b158015610b8b57600080fd5b505af1158015610b9f573d6000803e3d6000fd5b50505060008581526006602081905260409091206004810180546001600160a01b0319163317905501805460ff1916600117905550610be2600280546001019055565b5050610d6a565b60008281526006602052604090206005810154600290910154348214610c79576040805162461bcd60e51b81526020600482015260248101919091527f506c65617365207375626d6974207468652061736b696e67207072696365206960448201527f6e206f7264657220746f20636f6d706c657465207468652070757263686173656064820152608401610537565b6000848152600660205260408082206003015490516001600160a01b03909116913480156108fc02929091818181858888f19350505050158015610cc1573d6000803e3d6000fd5b506040516323b872dd60e01b8152306004820152336024820152604481018290526001600160a01b038616906323b872dd90606401600060405180830381600087803b158015610d1057600080fd5b505af1158015610d24573d6000803e3d6000fd5b50505060008581526006602081905260409091206004810180546001600160a01b0319163317905501805460ff1916600117905550610d67600280546001019055565b50505b5050600160005550565b60606000610d8160015490565b905060008060005b83811015610de4573360066000610da1846001611123565b81526020810191909152604001600020600301546001600160a01b03161415610dd257610dcf600184611123565b92505b80610ddc81611152565b915050610d89565b5060008267ffffffffffffffff811115610e0e57634e487b7160e01b600052604160045260246000fd5b604051908082528060200260200182016040528015610e4757816020015b610e34610f6b565b815260200190600190039081610e2c5790505b50905060005b848110156102e8573360066000610e65846001611123565b81526020810191909152604001600020600301546001600160a01b03161415610f59576000610e95826001611123565b600081815260066020818152604092839020835161010080820186528254825260018301546001600160a01b039081169483019490945260028301549582019590955260038201548316606082015260048201549092166080830152600581015460a08301529182015460ff808216151560c0840152939004909216151560e0830152855192935091859087908110610f3e57634e487b7160e01b600052603260045260246000fd5b6020908102919091010152610f54600186611123565b945050505b80610f6381611152565b915050610e4d565b6040805161010081018252600080825260208201819052918101829052606081018290526080810182905260a0810182905260c0810182905260e081019190915290565b600060208284031215610fc0578081fd5b8151610fcb81611183565b9392505050565b60008060408385031215610fe4578081fd5b8235610fef81611183565b946020939093013593505050565b600080600080600060a08688031215611014578081fd5b853561101f81611183565b94506020860135935060408601359250606086013561103d8161119b565b949793965091946080013592915050565b60006020828403121561105f578081fd5b8151610fcb8161119b565b60006020828403121561107b578081fd5b5051919050565b602080825282518282018190526000919060409081850190868401855b8281101561111657815180518552868101516001600160a01b039081168887015286820151878701526060808301518216908701526080808301519091169086015260a0808201519086015260c08082015115159086015260e090810151151590850152610100909301929085019060010161109f565b5091979650505050505050565b600082198211156111365761113661116d565b500190565b60008282101561114d5761114d61116d565b500390565b60006000198214156111665761116661116d565b5060010190565b634e487b7160e01b600052601160045260246000fd5b6001600160a01b038116811461119857600080fd5b50565b801515811461119857600080fdfea2646970667358221220fc90066498fe6f731b3758bfacee054b7c92d0dbc9ef9fd5f79c74e5a0f85d3c64736f6c6343000804003360806040523480156200001157600080fd5b506200001d336200002e565b62000028336200007e565b62000153565b600080546001600160a01b038381166001600160a01b0319831681178455604051919092169283917f8be0079c531659141344cd1fd0a4f28419497f9722a3daafe3b4186f6b6457e09190a35050565b6000546001600160a01b03163314620000de5760405162461bcd60e51b815260206004820181905260248201527f4f776e61626c653a2063616c6c6572206973206e6f7420746865206f776e657260448201526064015b60405180910390fd5b6001600160a01b038116620001455760405162461bcd60e51b815260206004820152602660248201527f4f776e61626c653a206e6577206f776e657220697320746865207a65726f206160448201526564647265737360d01b6064820152608401620000d5565b62000150816200002e565b50565b6116d380620001636000396000f3fe6080604052600436106101095760003560e01c8063a670a9b411610095578063d712c1e611610064578063d712c1e614610393578063eade7f1814610430578063efbe1c1c14610452578063f2fde38b1461046c578063f48efd7c1461048c57600080fd5b8063a670a9b4146102a1578063c217d4d61461033d578063c76659a11461035d578063d5a49e011461037d57600080fd5b8063715018a6116100dc578063715018a61461016d5780637665d51f146101825780637b0b6f21146101b25780638226508d146101d25780638da5cb5b1461026f57600080fd5b806329cb924d1461010e5780633ccfd60b146101305780634a5503381461013a57806359d667a51461015a575b600080fd5b34801561011a57600080fd5b50425b6040519081526020015b60405180910390f35b61013861049f565b005b34801561014657600080fd5b5061013861015536600461150b565b610538565b61013861016836600461150b565b6106e5565b34801561017957600080fd5b50610138610a61565b34801561018e57600080fd5b506101a261019d36600461150b565b610a97565b6040519015158152602001610127565b3480156101be57600080fd5b506101a26101cd366004611534565b610b26565b3480156101de57600080fd5b5061011d6101ed36600461150b565b6001600160a01b03918216600090815260036020818152604080842094845293815291839020835160e081018552815486168152600182015493810193909352600281015490941692820192909252908201546060820181905260048301546080830152600583015460a083015260069092015460ff16151560c09091015290565b34801561027b57600080fd5b506000546001600160a01b03165b6040516001600160a01b039091168152602001610127565b3480156102ad57600080fd5b506102896102bc36600461150b565b6001600160a01b03918216600090815260036020818152604080842094845293815291839020835160e0810185528154861681526001820154938101939093526002810154909416928201839052830154606082015260048301546080820152600583015460a082015260069092015460ff16151560c09092019190915290565b34801561034957600080fd5b5061011d61035836600461159a565b610c00565b34801561036957600080fd5b506101a261037836600461150b565b610df0565b34801561038957600080fd5b5061011d60015481565b34801561039f57600080fd5b5061011d6103ae36600461150b565b6001600160a01b03918216600090815260036020818152604080842094845293815291839020835160e081018552815486168152600182015493810193909352600281015490941692820192909252908201546060820152600482015460808201819052600583015460a083015260069092015460ff16151560c09091015290565b34801561043c57600080fd5b503360009081526006602052604090205461011d565b34801561045e57600080fd5b506002546101a29060ff1681565b34801561047857600080fd5b506101386104873660046114ea565b610eb3565b61013861049a36600461155f565b610f4e565b336000908152600660205260409020546104f45760405162461bcd60e51b81526020600482015260116024820152704e6f20546f6b656e732070656e64696e6760781b60448201526064015b60405180910390fd5b33600081815260066020526040808220549051909291829184156108fc0291859190818181858888f19350505050158015610533573d6000803e3d6000fd5b505050565b600180549060006105488361166c565b90915550506001600160a01b038083166000908152600360208181526040808420868552825292839020835160e081018552815486168152600182015492810192909252600281015490941692810192909252820154606082015260048201546080820152600582015460a082015260069091015460ff1615801560c083015261060d5760405162461bcd60e51b8152602060048201526016602482015275151a1a5cc8185d58dd1a5bdb881a185cc8115b99195960521b60448201526064016104eb565b6001600160a01b038316600090815260036020908152604080832085845290915290206004015442111561064c57600160c082015261064c83836111d1565b6001600160a01b03928316600090815260036020818152604080842095845294815291849020835181546001600160a01b03199081169188169190911782559284015160018201559383015160028501805490931695169490941790556060810151928201929092556080820151600482015560a0820151600582015560c0909101516006909101805460ff1916911515919091179055565b6001600160a01b038083166000908152600360208181526040808420868552825292839020835160e081018552815486168152600182015492810192909252600281015490941692810192909252820154606082015260048201546080820152600582015460a082015260069091015460ff1615801560c08301526107a05760405162461bcd60e51b8152602060048201526011602482015270105d58dd1a5bdb881a185cc8195b991959607a1b60448201526064016104eb565b80516001600160a01b03166107f05760405162461bcd60e51b8152602060048201526016602482015275105d58dd1a5bdb88191bd95cc81b9bdd08195e1a5cdd60521b60448201526064016104eb565b60c08101516002805460ff19169115159190911790556108108383610538565b8060800151421015610533573360009081526004602090815260408083206001600160a01b03871684528252808320858452909152902054610852813461161e565b82606001511080156108715750610869813461161e565b826020015111155b6108b65760405162461bcd60e51b8152602060048201526016602482015275506c656173652073656e64206d6f72652066756e647360501b60448201526064016104eb565b81516001600160a01b031633141561091b5760405162461bcd60e51b815260206004820152602260248201527f596f752063616e6e6f742062696420696e20796f7572206f776e20617563746960448201526137b760f11b60648201526084016104eb565b610925348261161e565b3360008181526004602090815260408083206001600160a01b038a168085529083528184208985528352818420869055606088810187905288830186905290845260058352818420898552909252918290208251918201909252929350919081906001600160a01b0390811682526020808301959095524260409283015283546001808201865560009586528686208551600393840290910180546001600160a01b0319908116928616929092178155868901518184015595850151600296870155998316865281875283862098865297865293829020865181548a16908316178155948601519685019690965584015190830180549096169416939093179093556060810151918301919091556080810151600483015560a0810151600583015560c001516006909101805460ff1916911515919091179055565b6000546001600160a01b03163314610a8b5760405162461bcd60e51b81526004016104eb906115e9565b610a956000611431565b565b6001600160a01b0380831660009081526003602081815260408084208685528252808420815160e08101835281548716815260018201549381019390935260028101549095169082015290830154606082015260048301546080820152600583015460a082015260069092015460ff16151560c083015290610b198484610538565b60c0015190505b92915050565b6001600160a01b0380821660009081526003602081815260408084208785528252808420815160e0810183528154871680825260018301549482019490945260028201549096169186019190915291820154606085015260048201546080850152600582015460a085015260069091015460ff16151560c0840152909190610b195760405162461bcd60e51b815260206004820152602760248201527f41756374696f6e20666f722074686973204e4654206973206e6f7420696e2070604482015266726f677265737360c81b60648201526084016104eb565b600080546001600160a01b03163314610c2b5760405162461bcd60e51b81526004016104eb906115e9565b6001600160a01b038416600090815260036020908152604080832086845290915290206005015415610c9f5760405162461bcd60e51b815260206004820152601f60248201527f5468652041756374696f6e2068617320616c726561647920737461727465640060448201526064016104eb565b610caa856001611636565b9450610cb6854261161e565b94506009610cc44287611655565b1015610d2f5760405162461bcd60e51b815260206004820152603460248201527f54686520656e64696e6720756e69782073686f756c642062652061746c656173604482015273742035206d696e757465732066726f6d206e6f7760601b60648201526084016104eb565b506040805160e0810182526001600160a01b039283168152602080820197885260008284018181526060840182815260808501998a524260a0860190815260c08601848152998816845260038086528785209985529890945294909120925183549086166001600160a01b031991821617845598516001840155516002830180549190951698169790971790925551918101919091559151600483015591516005820181905591516006909101805491151560ff1990921691909117905590565b600080546001600160a01b03163314610e1b5760405162461bcd60e51b81526004016104eb906115e9565b6001600160a01b038084166000908152600360208181526040808420878552825292839020835160e0810185528154861681526001820154928101929092526002810154909416928101929092528201546060820152600482015460808201819052600583015460a083015260069092015460ff16151560c082015290421115610ea9576001915050610b20565b6000915050610b20565b6000546001600160a01b03163314610edd5760405162461bcd60e51b81526004016104eb906115e9565b6001600160a01b038116610f425760405162461bcd60e51b815260206004820152602660248201527f4f776e61626c653a206e6577206f776e657220697320746865207a65726f206160448201526564647265737360d01b60648201526084016104eb565b610f4b81611431565b50565b6000546001600160a01b03163314610f785760405162461bcd60e51b81526004016104eb906115e9565b6001600160a01b038083166000908152600360208181526040808420888552808352818520825160e08101845281548816808252600183015482870152600283015489169482019490945294810154606086015260048101546080860152600581015460a08601526006015460ff16151560c085015293889052929052918316148061102e57506001600160a01b0380841660009081526003602090815260408083208884529091529020600201548382169116145b6110915760405162461bcd60e51b815260206004820152602e60248201527f596f7520617265206e6f7420617574686f72697a656420746f20636f6e636c7560448201526d3232903a34329030bab1ba34b7b760911b60648201526084016104eb565b428160800151106110dd5760405162461bcd60e51b815260206004820152601660248201527541756374696f6e2054696d652072656d61696e696e6760501b60448201526064016104eb565b60006110e98585610b26565b9050806110fa576110fa8486610538565b6001600160a01b03841660008181526003602081815260408084208a8552825280842080546001600160a01b031990811682556001820186905560028201805490911690559283018490556004830184905560058084018590556006909301805460ff19169055938352908152828220888352905290812061117b91611481565b60008260600151600161118e9190611636565b83516040519192506001600160a01b03169082156108fc029083906000818181858888f193505050501580156111c8573d6000803e3d6000fd5b50505050505050565b6001600160a01b0382166000908152600560209081526040808320848452825280832080548251818502810185019093528083529192909190849084015b82821015611264576000848152602090819020604080516060810182526003860290920180546001600160a01b031683526001808201548486015260029091015491830191909152908352909201910161120f565b505050506001600160a01b0384811660009081526003602081815260408084208885528252808420815160e08101835281548716815260018201549381019390935260028101549095169082015290830154606082015260048301546080820152600583015460a082015260069092015460ff16151560c0830152919250905b600183516112f29190611655565b811161142a57816060015183828151811061131d57634e487b7160e01b600052603260045260246000fd5b60200260200101516020015114611418576004600084838151811061135257634e487b7160e01b600052603260045260246000fd5b6020026020010151600001516001600160a01b03166001600160a01b031681526020019081526020016000206000866001600160a01b03166001600160a01b03168152602001908152602001600020600085815260200190815260200160002054600660008584815181106113d757634e487b7160e01b600052603260045260246000fd5b6020026020010151600001516001600160a01b03166001600160a01b031681526020019081526020016000206000828254611412919061161e565b90915550505b806114228161166c565b9150506112e4565b5050505050565b600080546001600160a01b038381166001600160a01b0319831681178455604051919092169283917f8be0079c531659141344cd1fd0a4f28419497f9722a3daafe3b4186f6b6457e09190a35050565b5080546000825560030290600052602060002090810190610f4b91905b808211156114ca5780546001600160a01b0319168155600060018201819055600282015560030161149e565b5090565b80356001600160a01b03811681146114e557600080fd5b919050565b6000602082840312156114fb578081fd5b611504826114ce565b9392505050565b6000806040838503121561151d578081fd5b611526836114ce565b946020939093013593505050565b60008060408385031215611546578182fd5b82359150611556602084016114ce565b90509250929050565b600080600060608486031215611573578081fd5b83359250611583602085016114ce565b9150611591604085016114ce565b90509250925092565b600080600080600060a086880312156115b1578081fd5b85359450602086013593506115c8604087016114ce565b9250606086013591506115dd608087016114ce565b90509295509295909350565b6020808252818101527f4f776e61626c653a2063616c6c6572206973206e6f7420746865206f776e6572604082015260600190565b6000821982111561163157611631611687565b500190565b600081600019048311821515161561165057611650611687565b500290565b60008282101561166757611667611687565b500390565b600060001982141561168057611680611687565b5060010190565b634e487b7160e01b600052601160045260246000fdfea26469706673582212207bf25f81dd58016d306f0b914dfa83142cac419b368ae1d8186b14c02c8d47e764736f6c63430008040033",
  "linkReferences": {},
  "deployedLinkReferences": {}
}