{
  "_format": "hh-sol-artifact-1",
  "contractName": "Factory",
  "sourceName": "contracts/Factory.sol",
  "abi": [
    {
      "inputs": [
        {
          "internalType": "address",
          "name": "_market",
          "type": "address"
        }
      ],
      "stateMutability": "nonpayable",
      "type": "constructor"
    },
    {
      "inputs": [
        {
          "internalType": "address",
          "name": "",
          "type": "address"
        }
      ],
      "name": "collections",
      "outputs": [
        {
          "internalType": "uint256",
          "name": "",
          "type": "uint256"
        }
      ],
      "stateMutability": "view",
      "type": "function"
    },
    {
      "inputs": [
        {
          "internalType": "string",
          "name": "name",
          "type": "string"
        },
        {
          "internalType": "string",
          "name": "symbol",
          "type": "string"
        },
        {
          "internalType": "string",
          "name": "baseURI",
          "type": "string"
        }
      ],
      "name": "createCollection",
      "outputs": [
        {
          "internalType": "address",
          "name": "",
          "type": "address"
        }
      ],
      "stateMutability": "nonpayable",
      "type": "function"
    },
    {
      "inputs": [],
      "name": "market",
      "outputs": [
        {
          "internalType": "address",
          "name": "",
          "type": "address"
        }
      ],
      "stateMutability": "view",
      "type": "function"
    },
    {
      "inputs": [
        {
          "internalType": "address",
          "name": "",
          "type": "address"
        },
        {
          "internalType": "uint256",
          "name": "",
          "type": "uint256"
        }
      ],
      "name": "ownerIdToCollection",
      "outputs": [
        {
          "internalType": "address",
          "name": "",
          "type": "address"
        }
      ],
      "stateMutability": "view",
      "type": "function"
    }
  ],
  "bytecode": "0x608060405234801561001057600080fd5b5060405161270238038061270283398101604081905261002f91610054565b600080546001600160a01b0319166001600160a01b0392909216919091179055610082565b600060208284031215610065578081fd5b81516001600160a01b038116811461007b578182fd5b9392505050565b612671806100916000396000f3fe608060405234801561001057600080fd5b506004361061004c5760003560e01c806343add2e61461005157806380f5560514610084578063ca439763146100af578063ece86c21146100e3575b600080fd5b61007161005f36600461022c565b60026020526000908152604090205481565b6040519081526020015b60405180910390f35b600054610097906001600160a01b031681565b6040516001600160a01b03909116815260200161007b565b6100976100bd36600461024d565b60016020908152600092835260408084209091529082529020546001600160a01b031681565b6100976100f1366004610276565b3360008181526002602052604080822054825491519293909284926001600160a01b0316918b918b918b918b918b918b919061012c906101bb565b61013d989796959493929190610335565b604051809103906000f080158015610159573d6000803e3d6000fd5b50336000818152600160209081526040808320878452825280832080546001600160a01b0319166001600160a01b0387161790559282526002905290812080549293508392916101a883610399565b90915550909a9950505050505050505050565b61227b80620003c183390190565b80356001600160a01b03811681146101e057600080fd5b919050565b60008083601f8401126101f6578182fd5b50813567ffffffffffffffff81111561020d578182fd5b60208301915083602082850101111561022557600080fd5b9250929050565b60006020828403121561023d578081fd5b610246826101c9565b9392505050565b6000806040838503121561025f578081fd5b610268836101c9565b946020939093013593505050565b6000806000806000806060878903121561028e578182fd5b863567ffffffffffffffff808211156102a5578384fd5b6102b18a838b016101e5565b909850965060208901359150808211156102c9578384fd5b6102d58a838b016101e5565b909650945060408901359150808211156102ed578384fd5b506102fa89828a016101e5565b979a9699509497509295939492505050565b81835281816020850137506000828201602090810191909152601f909101601f19169091010190565b600060018060a01b03808b16835260a0602084015261035860a084018a8c61030c565b838103604085015261036b81898b61030c565b9050838103606085015261038081878961030c565b9250508084166080840152509998505050505050505050565b60006000198214156103b957634e487b7160e01b81526011600452602481fd5b506001019056fe60806040523480156200001157600080fd5b506040516200227b3803806200227b833981016040819052620000349162000371565b848484848282816000908051906020019062000052929190620001fb565b50805162000068906001906020840190620001fb565b5050600c80546001600160a01b0319166001600160a01b0387161790555080516200009b90600d906020840190620001fb565b5050505050620000ba620000b4620000d060201b60201c565b620000d4565b620000c58162000126565b505050505062000478565b3390565b600e80546001600160a01b038381166001600160a01b0319831681179093556040519116919082907f8be0079c531659141344cd1fd0a4f28419497f9722a3daafe3b4186f6b6457e090600090a35050565b600e546001600160a01b03163314620001865760405162461bcd60e51b815260206004820181905260248201527f4f776e61626c653a2063616c6c6572206973206e6f7420746865206f776e657260448201526064015b60405180910390fd5b6001600160a01b038116620001ed5760405162461bcd60e51b815260206004820152602660248201527f4f776e61626c653a206e6577206f776e657220697320746865207a65726f206160448201526564647265737360d01b60648201526084016200017d565b620001f881620000d4565b50565b828054620002099062000425565b90600052602060002090601f0160209004810192826200022d576000855562000278565b82601f106200024857805160ff191683800117855562000278565b8280016001018555821562000278579182015b82811115620002785782518255916020019190600101906200025b565b50620002869291506200028a565b5090565b5b808211156200028657600081556001016200028b565b80516001600160a01b0381168114620002b957600080fd5b919050565b600082601f830112620002cf578081fd5b81516001600160401b0380821115620002ec57620002ec62000462565b604051601f8301601f19908116603f0116810190828211818310171562000317576200031762000462565b8160405283815260209250868385880101111562000333578485fd5b8491505b8382101562000356578582018301518183018401529082019062000337565b838211156200036757848385830101525b9695505050505050565b600080600080600060a0868803121562000389578081fd5b6200039486620002a1565b60208701519095506001600160401b0380821115620003b1578283fd5b620003bf89838a01620002be565b95506040880151915080821115620003d5578283fd5b620003e389838a01620002be565b94506060880151915080821115620003f9578283fd5b506200040888828901620002be565b9250506200041960808701620002a1565b90509295509295909350565b600181811c908216806200043a57607f821691505b602082108114156200045c57634e487b7160e01b600052602260045260246000fd5b50919050565b634e487b7160e01b600052604160045260246000fd5b611df380620004886000396000f3fe608060405234801561001057600080fd5b50600436106101375760003560e01c80636352211e116100b857806395d89b411161007c57806395d89b4114610271578063a22cb46514610279578063b88d4fde1461028c578063c87b56dd1461029f578063e985e9c5146102b2578063f2fde38b146102ee57600080fd5b80636352211e1461022a5780636c0360eb1461023d57806370a0823114610245578063715018a6146102585780638da5cb5b1461026057600080fd5b806323b872dd116100ff57806323b872dd146101cb5780632f745c59146101de57806342842e0e146101f157806345576f94146102045780634f6ccce71461021757600080fd5b806301ffc9a71461013c57806306fdde0314610164578063081812fc14610179578063095ea7b3146101a457806318160ddd146101b9575b600080fd5b61014f61014a366004611a73565b610301565b60405190151581526020015b60405180910390f35b61016c610312565b60405161015b9190611ba1565b61018c610187366004611af1565b6103a4565b6040516001600160a01b03909116815260200161015b565b6101b76101b2366004611a4a565b610431565b005b6008545b60405190815260200161015b565b6101b76101d936600461195c565b610547565b6101bd6101ec366004611a4a565b610578565b6101b76101ff36600461195c565b61060e565b6101bd610212366004611aab565b610629565b6101bd610225366004611af1565b610664565b61018c610238366004611af1565b610705565b61016c61077c565b6101bd610253366004611910565b61080a565b6101b7610891565b600e546001600160a01b031661018c565b61016c6108c7565b6101b7610287366004611a10565b6108d6565b6101b761029a366004611997565b6108e5565b61016c6102ad366004611af1565b61091d565b61014f6102c036600461192a565b6001600160a01b03918216600090815260056020908152604080832093909416825291909152205460ff1690565b6101b76102fc366004611910565b610928565b600061030c826109c3565b92915050565b60606000805461032190611cfb565b80601f016020809104026020016040519081016040528092919081815260200182805461034d90611cfb565b801561039a5780601f1061036f5761010080835404028352916020019161039a565b820191906000526020600020905b81548152906001019060200180831161037d57829003601f168201915b5050505050905090565b60006103af826109e8565b6104155760405162461bcd60e51b815260206004820152602c60248201527f4552433732313a20617070726f76656420717565727920666f72206e6f6e657860448201526b34b9ba32b73a103a37b5b2b760a11b60648201526084015b60405180910390fd5b506000908152600460205260409020546001600160a01b031690565b600061043c82610705565b9050806001600160a01b0316836001600160a01b031614156104aa5760405162461bcd60e51b815260206004820152602160248201527f4552433732313a20617070726f76616c20746f2063757272656e74206f776e656044820152603960f91b606482015260840161040c565b336001600160a01b03821614806104c657506104c681336102c0565b6105385760405162461bcd60e51b815260206004820152603860248201527f4552433732313a20617070726f76652063616c6c6572206973206e6f74206f7760448201527f6e6572206e6f7220617070726f76656420666f7220616c6c0000000000000000606482015260840161040c565b6105428383610a05565b505050565b6105513382610a73565b61056d5760405162461bcd60e51b815260040161040c90611c3b565b610542838383610b5d565b60006105838361080a565b82106105e55760405162461bcd60e51b815260206004820152602b60248201527f455243373231456e756d657261626c653a206f776e657220696e646578206f7560448201526a74206f6620626f756e647360a81b606482015260840161040c565b506001600160a01b03919091166000908152600660209081526040808320938352929052205490565b610542838383604051806020016040528060008152506108e5565b600e546000906001600160a01b031633146106565760405162461bcd60e51b815260040161040c90611c06565b61030c82610d08565b919050565b600061066f60085490565b82106106d25760405162461bcd60e51b815260206004820152602c60248201527f455243373231456e756d657261626c653a20676c6f62616c20696e646578206f60448201526b7574206f6620626f756e647360a01b606482015260840161040c565b600882815481106106f357634e487b7160e01b600052603260045260246000fd5b90600052602060002001549050919050565b6000818152600260205260408120546001600160a01b03168061030c5760405162461bcd60e51b815260206004820152602960248201527f4552433732313a206f776e657220717565727920666f72206e6f6e657869737460448201526832b73a103a37b5b2b760b91b606482015260840161040c565b600d805461078990611cfb565b80601f01602080910402602001604051908101604052809291908181526020018280546107b590611cfb565b80156108025780601f106107d757610100808354040283529160200191610802565b820191906000526020600020905b8154815290600101906020018083116107e557829003601f168201915b505050505081565b60006001600160a01b0382166108755760405162461bcd60e51b815260206004820152602a60248201527f4552433732313a2062616c616e636520717565727920666f7220746865207a65604482015269726f206164647265737360b01b606482015260840161040c565b506001600160a01b031660009081526003602052604090205490565b600e546001600160a01b031633146108bb5760405162461bcd60e51b815260040161040c90611c06565b6108c56000610d4f565b565b60606001805461032190611cfb565b6108e1338383610da1565b5050565b6108ef3383610a73565b61090b5760405162461bcd60e51b815260040161040c90611c3b565b61091784848484610e70565b50505050565b606061030c82610ea3565b600e546001600160a01b031633146109525760405162461bcd60e51b815260040161040c90611c06565b6001600160a01b0381166109b75760405162461bcd60e51b815260206004820152602660248201527f4f776e61626c653a206e6577206f776e657220697320746865207a65726f206160448201526564647265737360d01b606482015260840161040c565b6109c081610d4f565b50565b60006001600160e01b0319821663780e9d6360e01b148061030c575061030c82611005565b6000908152600260205260409020546001600160a01b0316151590565b600081815260046020526040902080546001600160a01b0319166001600160a01b0384169081179091558190610a3a82610705565b6001600160a01b03167f8c5be1e5ebec7d5bd14f71427d1e84f3dd0314c0f7b2291e5b200ac8c7c3b92560405160405180910390a45050565b6000610a7e826109e8565b610adf5760405162461bcd60e51b815260206004820152602c60248201527f4552433732313a206f70657261746f7220717565727920666f72206e6f6e657860448201526b34b9ba32b73a103a37b5b2b760a11b606482015260840161040c565b6000610aea83610705565b9050806001600160a01b0316846001600160a01b03161480610b255750836001600160a01b0316610b1a846103a4565b6001600160a01b0316145b80610b5557506001600160a01b0380821660009081526005602090815260408083209388168352929052205460ff165b949350505050565b826001600160a01b0316610b7082610705565b6001600160a01b031614610bd85760405162461bcd60e51b815260206004820152602960248201527f4552433732313a207472616e73666572206f6620746f6b656e2074686174206960448201526839903737ba1037bbb760b91b606482015260840161040c565b6001600160a01b038216610c3a5760405162461bcd60e51b8152602060048201526024808201527f4552433732313a207472616e7366657220746f20746865207a65726f206164646044820152637265737360e01b606482015260840161040c565b610c45838383611055565b610c50600082610a05565b6001600160a01b0383166000908152600360205260408120805460019290610c79908490611cb8565b90915550506001600160a01b0382166000908152600360205260408120805460019290610ca7908490611c8c565b909155505060008181526002602052604080822080546001600160a01b0319166001600160a01b0386811691821790925591518493918716917fddf252ad1be2c89b69c2b068fc378daa952ba7f163c4a11628f55a4df523b3ef91a4505050565b600080610d14600b5490565b9050610d24600b80546001019055565b610d2e3382611060565b600c54610d45906001600160a01b031660016108d6565b61030c818461107a565b600e80546001600160a01b038381166001600160a01b0319831681179093556040519116919082907f8be0079c531659141344cd1fd0a4f28419497f9722a3daafe3b4186f6b6457e090600090a35050565b816001600160a01b0316836001600160a01b03161415610e035760405162461bcd60e51b815260206004820152601960248201527f4552433732313a20617070726f766520746f2063616c6c657200000000000000604482015260640161040c565b6001600160a01b03838116600081815260056020908152604080832094871680845294825291829020805460ff191686151590811790915591519182527f17307eab39ab6107e8899845ad3d59bd9653f200f220920489ca2b5937696c31910160405180910390a3505050565b610e7b848484610b5d565b610e8784848484611105565b6109175760405162461bcd60e51b815260040161040c90611bb4565b6060610eae826109e8565b610f145760405162461bcd60e51b815260206004820152603160248201527f45524337323155524953746f726167653a2055524920717565727920666f72206044820152703737b732bc34b9ba32b73a103a37b5b2b760791b606482015260840161040c565b6000828152600a602052604081208054610f2d90611cfb565b80601f0160208091040260200160405190810160405280929190818152602001828054610f5990611cfb565b8015610fa65780601f10610f7b57610100808354040283529160200191610fa6565b820191906000526020600020905b815481529060010190602001808311610f8957829003601f168201915b505050505090506000610fb7611212565b9050805160001415610fca575092915050565b815115610ffc578082604051602001610fe4929190611b35565b60405160208183030381529060405292505050919050565b610b5584611221565b60006001600160e01b031982166380ac58cd60e01b148061103657506001600160e01b03198216635b5e139f60e01b145b8061030c57506301ffc9a760e01b6001600160e01b031983161461030c565b6105428383836112ec565b6108e18282604051806020016040528060008152506113a4565b611083826109e8565b6110e65760405162461bcd60e51b815260206004820152602e60248201527f45524337323155524953746f726167653a2055524920736574206f66206e6f6e60448201526d32bc34b9ba32b73a103a37b5b2b760911b606482015260840161040c565b6000828152600a602090815260409091208251610542928401906117ea565b60006001600160a01b0384163b1561120757604051630a85bd0160e11b81526001600160a01b0385169063150b7a0290611149903390899088908890600401611b64565b602060405180830381600087803b15801561116357600080fd5b505af1925050508015611193575060408051601f3d908101601f1916820190925261119091810190611a8f565b60015b6111ed573d8080156111c1576040519150601f19603f3d011682016040523d82523d6000602084013e6111c6565b606091505b5080516111e55760405162461bcd60e51b815260040161040c90611bb4565b805181602001fd5b6001600160e01b031916630a85bd0160e11b149050610b55565b506001949350505050565b6060600d805461032190611cfb565b606061122c826109e8565b6112905760405162461bcd60e51b815260206004820152602f60248201527f4552433732314d657461646174613a2055524920717565727920666f72206e6f60448201526e3732bc34b9ba32b73a103a37b5b2b760891b606482015260840161040c565b600061129a611212565b905060008151116112ba57604051806020016040528060008152506112e5565b806112c4846113d7565b6040516020016112d5929190611b35565b6040516020818303038152906040525b9392505050565b6001600160a01b0383166113475761134281600880546000838152600960205260408120829055600182018355919091527ff3f7a9fe364faab93b216da50a3214154f22a0a2b415b23a84c8169e8b636ee30155565b61136a565b816001600160a01b0316836001600160a01b03161461136a5761136a83826114f1565b6001600160a01b038216611381576105428161158e565b826001600160a01b0316826001600160a01b031614610542576105428282611667565b6113ae83836116ab565b6113bb6000848484611105565b6105425760405162461bcd60e51b815260040161040c90611bb4565b6060816113fb5750506040805180820190915260018152600360fc1b602082015290565b8160005b8115611425578061140f81611d36565b915061141e9050600a83611ca4565b91506113ff565b60008167ffffffffffffffff81111561144e57634e487b7160e01b600052604160045260246000fd5b6040519080825280601f01601f191660200182016040528015611478576020820181803683370190505b5090505b8415610b555761148d600183611cb8565b915061149a600a86611d51565b6114a5906030611c8c565b60f81b8183815181106114c857634e487b7160e01b600052603260045260246000fd5b60200101906001600160f81b031916908160001a9053506114ea600a86611ca4565b945061147c565b600060016114fe8461080a565b6115089190611cb8565b60008381526007602052604090205490915080821461155b576001600160a01b03841660009081526006602090815260408083208584528252808320548484528184208190558352600790915290208190555b5060009182526007602090815260408084208490556001600160a01b039094168352600681528383209183525290812055565b6008546000906115a090600190611cb8565b600083815260096020526040812054600880549394509092849081106115d657634e487b7160e01b600052603260045260246000fd5b90600052602060002001549050806008838154811061160557634e487b7160e01b600052603260045260246000fd5b600091825260208083209091019290925582815260099091526040808220849055858252812055600880548061164b57634e487b7160e01b600052603160045260246000fd5b6001900381819060005260206000200160009055905550505050565b60006116728361080a565b6001600160a01b039093166000908152600660209081526040808320868452825280832085905593825260079052919091209190915550565b6001600160a01b0382166117015760405162461bcd60e51b815260206004820181905260248201527f4552433732313a206d696e7420746f20746865207a65726f2061646472657373604482015260640161040c565b61170a816109e8565b156117575760405162461bcd60e51b815260206004820152601c60248201527f4552433732313a20746f6b656e20616c7265616479206d696e74656400000000604482015260640161040c565b61176360008383611055565b6001600160a01b038216600090815260036020526040812080546001929061178c908490611c8c565b909155505060008181526002602052604080822080546001600160a01b0319166001600160a01b03861690811790915590518392907fddf252ad1be2c89b69c2b068fc378daa952ba7f163c4a11628f55a4df523b3ef908290a45050565b8280546117f690611cfb565b90600052602060002090601f016020900481019282611818576000855561185e565b82601f1061183157805160ff191683800117855561185e565b8280016001018555821561185e579182015b8281111561185e578251825591602001919060010190611843565b5061186a92915061186e565b5090565b5b8082111561186a576000815560010161186f565b600067ffffffffffffffff8084111561189e5761189e611d91565b604051601f8501601f19908116603f011681019082821181831017156118c6576118c6611d91565b816040528093508581528686860111156118df57600080fd5b858560208301376000602087830101525050509392505050565b80356001600160a01b038116811461065f57600080fd5b600060208284031215611921578081fd5b6112e5826118f9565b6000806040838503121561193c578081fd5b611945836118f9565b9150611953602084016118f9565b90509250929050565b600080600060608486031215611970578081fd5b611979846118f9565b9250611987602085016118f9565b9150604084013590509250925092565b600080600080608085870312156119ac578081fd5b6119b5856118f9565b93506119c3602086016118f9565b925060408501359150606085013567ffffffffffffffff8111156119e5578182fd5b8501601f810187136119f5578182fd5b611a0487823560208401611883565b91505092959194509250565b60008060408385031215611a22578182fd5b611a2b836118f9565b915060208301358015158114611a3f578182fd5b809150509250929050565b60008060408385031215611a5c578182fd5b611a65836118f9565b946020939093013593505050565b600060208284031215611a84578081fd5b81356112e581611da7565b600060208284031215611aa0578081fd5b81516112e581611da7565b600060208284031215611abc578081fd5b813567ffffffffffffffff811115611ad2578182fd5b8201601f81018413611ae2578182fd5b610b5584823560208401611883565b600060208284031215611b02578081fd5b5035919050565b60008151808452611b21816020860160208601611ccf565b601f01601f19169290920160200192915050565b60008351611b47818460208801611ccf565b835190830190611b5b818360208801611ccf565b01949350505050565b6001600160a01b0385811682528416602082015260408101839052608060608201819052600090611b9790830184611b09565b9695505050505050565b6020815260006112e56020830184611b09565b60208082526032908201527f4552433732313a207472616e7366657220746f206e6f6e20455243373231526560408201527131b2b4bb32b91034b6b83632b6b2b73a32b960711b606082015260800190565b6020808252818101527f4f776e61626c653a2063616c6c6572206973206e6f7420746865206f776e6572604082015260600190565b60208082526031908201527f4552433732313a207472616e736665722063616c6c6572206973206e6f74206f6040820152701ddb995c881b9bdc88185c1c1c9bdd9959607a1b606082015260800190565b60008219821115611c9f57611c9f611d65565b500190565b600082611cb357611cb3611d7b565b500490565b600082821015611cca57611cca611d65565b500390565b60005b83811015611cea578181015183820152602001611cd2565b838111156109175750506000910152565b600181811c90821680611d0f57607f821691505b60208210811415611d3057634e487b7160e01b600052602260045260246000fd5b50919050565b6000600019821415611d4a57611d4a611d65565b5060010190565b600082611d6057611d60611d7b565b500690565b634e487b7160e01b600052601160045260246000fd5b634e487b7160e01b600052601260045260246000fd5b634e487b7160e01b600052604160045260246000fd5b6001600160e01b0319811681146109c057600080fdfea264697066735822122041a700f9991b8394c5d5aad302c2e3e9ab99e542ce7dbd40d8f212e20f6c795e64736f6c63430008040033a2646970667358221220f778e483e7ce9cda35ded53f75d6c5cf7cc6780f613f7a8f7fe2b613f548f44764736f6c63430008040033",
  "linkReferences": {},
  "deployedLinkReferences": {}
}