{
  "_format": "hh-sol-artifact-1",
  "contractName": "AuctionV0",
  "sourceName": "contracts/AuctionV0.sol",
  "abi": [
    {
      "inputs": [
        {
          "internalType": "address payable",
          "name": "_companyERC20Address",
          "type": "address"
        }
      ],
      "stateMutability": "nonpayable",
      "type": "constructor"
    },
    {
      "anonymous": false,
      "inputs": [
        {
          "indexed": true,
          "internalType": "address",
          "name": "seller",
          "type": "address"
        },
        {
          "indexed": false,
          "internalType": "uint256",
          "name": "basePrice",
          "type": "uint256"
        },
        {
          "indexed": true,
          "internalType": "uint256",
          "name": "startingTime",
          "type": "uint256"
        },
        {
          "indexed": false,
          "internalType": "uint256",
          "name": "endingTime",
          "type": "uint256"
        },
        {
          "components": [
            {
              "internalType": "address",
              "name": "nftContract",
              "type": "address"
            },
            {
              "internalType": "uint256",
              "name": "tokenId",
              "type": "uint256"
            }
          ],
          "indexed": true,
          "internalType": "struct AuctionV0.referenceToken",
          "name": "tokenDetails",
          "type": "tuple"
        }
      ],
      "name": "AuctionCreated",
      "type": "event"
    },
    {
      "anonymous": false,
      "inputs": [
        {
          "indexed": true,
          "internalType": "address",
          "name": "seller",
          "type": "address"
        },
        {
          "indexed": false,
          "internalType": "uint256",
          "name": "basePrice",
          "type": "uint256"
        },
        {
          "indexed": true,
          "internalType": "uint256",
          "name": "startingTime",
          "type": "uint256"
        },
        {
          "indexed": false,
          "internalType": "uint256",
          "name": "endingTime",
          "type": "uint256"
        },
        {
          "components": [
            {
              "internalType": "address",
              "name": "nftContract",
              "type": "address"
            },
            {
              "internalType": "uint256",
              "name": "tokenId",
              "type": "uint256"
            }
          ],
          "indexed": true,
          "internalType": "struct AuctionV0.referenceToken",
          "name": "tokenDetails",
          "type": "tuple"
        },
        {
          "indexed": false,
          "internalType": "address",
          "name": "bidWinner",
          "type": "address"
        },
        {
          "indexed": false,
          "internalType": "uint256",
          "name": "winningBid",
          "type": "uint256"
        },
        {
          "indexed": false,
          "internalType": "uint256",
          "name": "assetsTransferTime",
          "type": "uint256"
        }
      ],
      "name": "auctionConcluded",
      "type": "event"
    },
    {
      "anonymous": false,
      "inputs": [
        {
          "indexed": true,
          "internalType": "address",
          "name": "seller",
          "type": "address"
        },
        {
          "indexed": false,
          "internalType": "uint256",
          "name": "basePrice",
          "type": "uint256"
        },
        {
          "indexed": true,
          "internalType": "uint256",
          "name": "startingTime",
          "type": "uint256"
        },
        {
          "indexed": false,
          "internalType": "uint256",
          "name": "endingTime",
          "type": "uint256"
        },
        {
          "indexed": false,
          "internalType": "address",
          "name": "highestBidder",
          "type": "address"
        },
        {
          "indexed": false,
          "internalType": "uint256",
          "name": "highestBid",
          "type": "uint256"
        },
        {
          "components": [
            {
              "internalType": "address",
              "name": "nftContract",
              "type": "address"
            },
            {
              "internalType": "uint256",
              "name": "tokenId",
              "type": "uint256"
            }
          ],
          "indexed": true,
          "internalType": "struct AuctionV0.referenceToken",
          "name": "tokenDetails",
          "type": "tuple"
        }
      ],
      "name": "auctionTimeIncreased",
      "type": "event"
    },
    {
      "anonymous": false,
      "inputs": [
        {
          "indexed": true,
          "internalType": "address",
          "name": "bidder",
          "type": "address"
        },
        {
          "indexed": false,
          "internalType": "uint256",
          "name": "amount",
          "type": "uint256"
        },
        {
          "indexed": true,
          "internalType": "uint256",
          "name": "biddingTime",
          "type": "uint256"
        },
        {
          "components": [
            {
              "internalType": "address",
              "name": "seller",
              "type": "address"
            },
            {
              "internalType": "uint256",
              "name": "basePrice",
              "type": "uint256"
            },
            {
              "internalType": "uint256",
              "name": "startingTime",
              "type": "uint256"
            },
            {
              "components": [
                {
                  "internalType": "address",
                  "name": "nftContract",
                  "type": "address"
                },
                {
                  "internalType": "uint256",
                  "name": "tokenId",
                  "type": "uint256"
                }
              ],
              "internalType": "struct AuctionV0.referenceToken",
              "name": "tokenDetails",
              "type": "tuple"
            }
          ],
          "indexed": true,
          "internalType": "struct AuctionV0.referenceAuction",
          "name": "auction",
          "type": "tuple"
        }
      ],
      "name": "bidPlaced",
      "type": "event"
    },
    {
      "anonymous": false,
      "inputs": [
        {
          "indexed": true,
          "internalType": "address",
          "name": "user",
          "type": "address"
        },
        {
          "indexed": true,
          "internalType": "uint256",
          "name": "amount",
          "type": "uint256"
        },
        {
          "indexed": true,
          "internalType": "uint256",
          "name": "withdrawlTime",
          "type": "uint256"
        }
      ],
      "name": "pendingReturnsWithdrawn",
      "type": "event"
    },
    {
      "inputs": [
        {
          "internalType": "uint256",
          "name": "_tokenId",
          "type": "uint256"
        },
        {
          "internalType": "address",
          "name": "_nftContract",
          "type": "address"
        }
      ],
      "name": "_checkAuctionStatus",
      "outputs": [
        {
          "internalType": "bool",
          "name": "",
          "type": "bool"
        }
      ],
      "stateMutability": "view",
      "type": "function"
    },
    {
      "inputs": [
        {
          "internalType": "address",
          "name": "",
          "type": "address"
        },
        {
          "internalType": "uint256",
          "name": "",
          "type": "uint256"
        },
        {
          "internalType": "uint256",
          "name": "",
          "type": "uint256"
        }
      ],
      "name": "auctionBids",
      "outputs": [
        {
          "internalType": "address",
          "name": "bidder",
          "type": "address"
        },
        {
          "internalType": "uint256",
          "name": "amount",
          "type": "uint256"
        },
        {
          "internalType": "uint256",
          "name": "biddingUnix",
          "type": "uint256"
        }
      ],
      "stateMutability": "view",
      "type": "function"
    },
    {
      "inputs": [
        {
          "internalType": "uint256",
          "name": "_tokenId",
          "type": "uint256"
        },
        {
          "internalType": "address",
          "name": "_nftContract",
          "type": "address"
        }
      ],
      "name": "auctionTimeLeft",
      "outputs": [
        {
          "internalType": "uint256",
          "name": "",
          "type": "uint256"
        }
      ],
      "stateMutability": "view",
      "type": "function"
    },
    {
      "inputs": [
        {
          "internalType": "uint256",
          "name": "_tokenId",
          "type": "uint256"
        },
        {
          "internalType": "address",
          "name": "_nftContract",
          "type": "address"
        },
        {
          "internalType": "uint256",
          "name": "_amount",
          "type": "uint256"
        }
      ],
      "name": "bid",
      "outputs": [],
      "stateMutability": "payable",
      "type": "function"
    },
    {
      "inputs": [],
      "name": "checkPendingReturnsBalance",
      "outputs": [
        {
          "internalType": "uint256",
          "name": "",
          "type": "uint256"
        }
      ],
      "stateMutability": "view",
      "type": "function"
    },
    {
      "inputs": [],
      "name": "companyCutPercentage",
      "outputs": [
        {
          "internalType": "uint256",
          "name": "",
          "type": "uint256"
        }
      ],
      "stateMutability": "view",
      "type": "function"
    },
    {
      "inputs": [
        {
          "internalType": "uint256",
          "name": "_tokenId",
          "type": "uint256"
        },
        {
          "internalType": "address",
          "name": "_nftContract",
          "type": "address"
        }
      ],
      "name": "concludeAuction",
      "outputs": [],
      "stateMutability": "payable",
      "type": "function"
    },
    {
      "inputs": [
        {
          "internalType": "uint256",
          "name": "_basePrice",
          "type": "uint256"
        },
        {
          "internalType": "uint256",
          "name": "_endingUnix",
          "type": "uint256"
        },
        {
          "internalType": "address",
          "name": "_nftContract",
          "type": "address"
        },
        {
          "internalType": "uint256",
          "name": "_tokenId",
          "type": "uint256"
        },
        {
          "internalType": "address",
          "name": "_msgSender",
          "type": "address"
        }
      ],
      "name": "createAuction",
      "outputs": [],
      "stateMutability": "nonpayable",
      "type": "function"
    },
    {
      "inputs": [
        {
          "internalType": "uint256",
          "name": "_tokenId",
          "type": "uint256"
        },
        {
          "internalType": "address",
          "name": "_nftContract",
          "type": "address"
        }
      ],
      "name": "getBidWinner",
      "outputs": [
        {
          "internalType": "address",
          "name": "",
          "type": "address"
        },
        {
          "internalType": "uint256",
          "name": "",
          "type": "uint256"
        }
      ],
      "stateMutability": "view",
      "type": "function"
    },
    {
      "inputs": [
        {
          "internalType": "uint256",
          "name": "_tokenId",
          "type": "uint256"
        },
        {
          "internalType": "address payable",
          "name": "_nftContract",
          "type": "address"
        }
      ],
      "name": "getSeller",
      "outputs": [
        {
          "internalType": "address payable",
          "name": "",
          "type": "address"
        }
      ],
      "stateMutability": "view",
      "type": "function"
    },
    {
      "inputs": [
        {
          "internalType": "address",
          "name": "",
          "type": "address"
        }
      ],
      "name": "pendingReturns",
      "outputs": [
        {
          "internalType": "uint256",
          "name": "",
          "type": "uint256"
        }
      ],
      "stateMutability": "view",
      "type": "function"
    },
    {
      "inputs": [
        {
          "internalType": "address",
          "name": "",
          "type": "address"
        },
        {
          "internalType": "uint256",
          "name": "",
          "type": "uint256"
        }
      ],
      "name": "tokenIdToAuction",
      "outputs": [
        {
          "internalType": "address payable",
          "name": "seller",
          "type": "address"
        },
        {
          "internalType": "uint256",
          "name": "basePrice",
          "type": "uint256"
        },
        {
          "internalType": "address",
          "name": "highestBidder",
          "type": "address"
        },
        {
          "internalType": "uint256",
          "name": "highestBid",
          "type": "uint256"
        },
        {
          "internalType": "uint256",
          "name": "endingUnix",
          "type": "uint256"
        },
        {
          "internalType": "uint256",
          "name": "startingUnix",
          "type": "uint256"
        },
        {
          "internalType": "bool",
          "name": "ended",
          "type": "bool"
        },
        {
          "internalType": "address",
          "name": "nftContract",
          "type": "address"
        }
      ],
      "stateMutability": "view",
      "type": "function"
    },
    {
      "inputs": [],
      "name": "withdrawPendingReturns",
      "outputs": [],
      "stateMutability": "payable",
      "type": "function"
    }
  ],
  "bytecode": "0x6080604052600560035534801561001557600080fd5b50604051611aa9380380611aa983398101604081905261003491610059565b600480546001600160a01b0319166001600160a01b0392909216919091179055610087565b60006020828403121561006a578081fd5b81516001600160a01b0381168114610080578182fd5b9392505050565b611a13806100966000396000f3fe6080604052600436106100c25760003560e01c80637420d9a81161007f578063c217d4d611610059578063c217d4d6146102fd578063e80b5b991461031d578063ec290215146103e6578063f76dab0e146103ee57600080fd5b80637420d9a81461025e5780637b0b6f21146102ba578063c0f4ed31146102ea57600080fd5b806306475016146100c7578063141cd676146100fa57806326b387bb1461011057806342e48b551461013d578063642915b2146101825780636bf774a714610249575b600080fd5b3480156100d357600080fd5b506100e76100e2366004611842565b610410565b6040519081526020015b60405180910390f35b34801561010657600080fd5b506100e760035481565b34801561011c57600080fd5b506100e761012b3660046117c0565b60016020526000908152604090205481565b34801561014957600080fd5b5061015d61015836600461180e565b6104db565b604080516001600160a01b0390941684526020840192909252908201526060016100f1565b34801561018e57600080fd5b506101f961019d3660046117e3565b600060208181529281526040808220909352908152208054600182015460028301546003840154600485015460058601546006909601546001600160a01b0395861696949593841694929391929160ff82169161010090041688565b604080516001600160a01b03998a1681526020810198909852958816958701959095526060860193909352608085019190915260a0840152151560c083015290911660e0820152610100016100f1565b61025c610257366004611842565b610535565b005b34801561026a57600080fd5b506102a2610279366004611842565b6001600160a01b0390811660009081526020818152604080832094835293905291909120541690565b6040516001600160a01b0390911681526020016100f1565b3480156102c657600080fd5b506102da6102d5366004611842565b6109d8565b60405190151581526020016100f1565b61025c6102f8366004611871565b610a8a565b34801561030957600080fd5b5061025c6103183660046118a8565b61119e565b34801561032957600080fd5b506103c7610338366004611842565b6001600160a01b0390811660009081526020818152604080832094835293815290839020835161010080820186528254851682526001830154938201939093526002820154841694810185905260038201546060820181905260048301546080830152600583015460a083015260069092015460ff8116151560c08301529290920490921660e0909101529091565b604080516001600160a01b0390931683526020830191909152016100f1565b61025c611512565b3480156103fa57600080fd5b50336000908152600160205260409020546100e7565b6001600160a01b038082166000908152602081815260408083208684528252808320815161010080820184528254871680835260018401549583019590955260028301548716938201939093526003820154606082015260048201546080820152600582015460a082015260069091015460ff8116151560c08301529190910490931660e08401529091906104c05760405162461bcd60e51b81526004016104b7906118fd565b60405180910390fd5b60004282608001516104d2919061199b565b95945050505050565b6002602052826000526040600020602052816000526040600020818154811061050357600080fd5b60009182526020909120600390910201805460018201546002909201546001600160a01b039091169450909250905083565b6001600160a01b038181166000908152602081815260408083208684529091529020541633148061058b57506001600160a01b038181166000908152602081815260408083208684529091529020600201541633145b6105ee5760405162461bcd60e51b815260206004820152602e60248201527f596f7520617265206e6f7420617574686f72697a656420746f20636f6e636c7560448201526d3232903a34329030bab1ba34b7b760911b60648201526084016104b7565b6105f882826115f0565b600061060483836109d8565b90506001811515146106585760405162461bcd60e51b815260206004820152601d60248201527f5468652061756374696f6e20686173206e6f7420656e6465642079657400000060448201526064016104b7565b6000806000846001600160a01b03166001600160a01b031681526020019081526020016000206000858152602001908152602001600020604051806101000160405290816000820160009054906101000a90046001600160a01b03166001600160a01b03166001600160a01b03168152602001600182015481526020016002820160009054906101000a90046001600160a01b03166001600160a01b03166001600160a01b031681526020016003820154815260200160048201548152602001600582015481526020016006820160009054906101000a900460ff161515151581526020016006820160019054906101000a90046001600160a01b03166001600160a01b03166001600160a01b0316815250509050600080846001600160a01b03166001600160a01b031681526020019081526020016000206000858152602001908152602001600020600080820160006101000a8154906001600160a01b03021916905560018201600090556002820160006101000a8154906001600160a01b0302191690556003820160009055600482016000905560058201600090556006820160006101000a81549060ff02191690556006820160016101000a8154906001600160a01b030219169055505060026000846001600160a01b03166001600160a01b0316815260200190815260200160002060008581526020019081526020016000206000610869919061176b565b60006064826060015160035461087f919061197c565b610889919061195c565b9050600081836060015161089d919061199b565b83516040519192506001600160a01b03169082156108fc029083906000818181858888f193505050501580156108d7573d6000803e3d6000fd5b506004546040516001600160a01b039091169083156108fc029084906000818181858888f19350505050158015610912573d6000803e3d6000fd5b506040805180820182526001600160a01b0387168082526020918201898152835191825251918101919091520160405180910390208360a0015184600001516001600160a01b03167f639766b3087cb5e1b0239bfd7d6628af1b25356ec8d699ee7f5822c96d872f588660200151876080015188604001518960600151426040516109c895949392919094855260208501939093526001600160a01b039190911660408401526060830152608082015260a00190565b60405180910390a4505050505050565b6001600160a01b038082166000908152602081815260408083208684528252808320815161010080820184528254871680835260018401549583019590955260028301548716938201939093526003820154606082015260048201546080820152600582015460a082015260069091015460ff8116151560c08301529190910490931660e0840152909190610a7f5760405162461bcd60e51b81526004016104b7906118fd565b60c001519392505050565b610a9483836115f0565b6000610aa084846109d8565b90508015610ae85760405162461bcd60e51b8152602060048201526015602482015274151a1948185d58dd1a5bdb881a185cc8195b991959605a1b60448201526064016104b7565b336000908152600160205260409020548290610b05903490611944565b1015610b485760405162461bcd60e51b8152602060048201526012602482015271496e73756666696369656e742066756e647360701b60448201526064016104b7565b6001600160a01b03808416600090815260208181526040808320888452825291829020825161010080820185528254861680835260018401549483019490945260028301548616948201949094526003820154606082015260048201546080820152600582015460a082015260069091015460ff8116151560c08301529290920490921660e082015290331415610c2c5760405162461bcd60e51b815260206004820152602260248201527f596f752063616e6e6f742062696420696e20796f7572206f776e20617563746960448201526137b760f11b60648201526084016104b7565b6060810151610c9c578060200151831015610c975760405162461bcd60e51b815260206004820152602560248201527f596f757220626964206973206c6f776572207468616e20746865206261736520604482015264707269636560d81b60648201526084016104b7565b610d8b565b80606001518311610cff5760405162461bcd60e51b815260206004820152602760248201527f596f757220626964206973206c6f776572207468616e207468652070726576696044820152661bdd5cc8189a5960ca1b60648201526084016104b7565b66b1a2bc2ec50000816060015184610d17919061199b565b1015610d8b5760405162461bcd60e51b815260206004820152603b60248201527f596f7572206269642073686f756c642062652061746c6561737420302e35206560448201527f746820686967686572207468616e20746865206c61737420626964000000000060648201526084016104b7565b610d95348461199b565b33600090815260016020526040902054610daf919061199b565b33600090815260016020526040902055606081015115610e005760608101516040808301516001600160a01b0316600090815260016020529081208054909190610dfa908490611944565b90915550505b60608101839052336040820152608081015161038490610e20904261199b565b11610eef576080810151610e3690610384611944565b60808201526040805180820182526001600160a01b0386168082526020918201888152835191825251918101919091520160405180910390208160a0015182600001516001600160a01b03167f6a315fe3ef8a51dfc393c04d0d0989dd25500ca1ce89426e30935a649ce5c0b38460200151856080015186604001518760600151604051610ee6949392919093845260208401929092526001600160a01b03166040830152606082015260800190565b60405180910390a45b80600080866001600160a01b03166001600160a01b03168152602001908152602001600020600087815260200190815260200160002060008201518160000160006101000a8154816001600160a01b0302191690836001600160a01b031602179055506020820151816001015560408201518160020160006101000a8154816001600160a01b0302191690836001600160a01b03160217905550606082015181600301556080820151816004015560a0820151816005015560c08201518160060160006101000a81548160ff02191690831515021790555060e08201518160060160016101000a8154816001600160a01b0302191690836001600160a01b0316021790555090505060026000856001600160a01b03166001600160a01b0316815260200190815260200160002060008681526020019081526020016000206040518060600160405280336001600160a01b0316815260200185815260200142815250908060018154018082558091505060019003906000526020600020906003020160009091909190915060008201518160000160006101000a8154816001600160a01b0302191690836001600160a01b0316021790555060208201518160010155604082015181600201555050604051806080016040528082600001516001600160a01b03168152602001826020015181526020018260a0015181526020016040518060400160405280876001600160a01b0316815260200188815250815250604051611159919081516001600160a01b03908116825260208084015181840152604080850151908401526060808501518051909316908401520151608082015260a001919050565b60405190819003812084825290429033907f88d7f6f08b80dd6f928cd7b2d00a507d95d2966aa77d850b3bc25a867acdf37b9060200160405180910390a45050505050565b6001600160a01b038084166000908152602081815260408083208684528252918290208251610100808201855282548616825260018301549382019390935260028201548516938101939093526003810154606084015260048101546080840152600581015460a08401526006015460ff8116151560c08401520490911660e082015261122b8542611944565b81519095506001600160a01b0316156112ab5760c081015115156001146112ab5760405162461bcd60e51b815260206004820152602e60248201527f416e2061756374696f6e20666f722074686973206e667420697320616c72656160448201526d647920696e2070726f677265737360901b60648201526084016104b7565b60096112b7428761199b565b10156113225760405162461bcd60e51b815260206004820152603460248201527f54686520656e64696e6720756e69782073686f756c642062652061746c656173604482015273742035206d696e757465732066726f6d206e6f7760601b60648201526084016104b7565b604051806101000160405280836001600160a01b0316815260200187815260200160006001600160a01b0316815260200160008152602001868152602001428152602001600015158152602001856001600160a01b0316815250600080866001600160a01b03166001600160a01b03168152602001908152602001600020600085815260200190815260200160002060008201518160000160006101000a8154816001600160a01b0302191690836001600160a01b031602179055506020820151816001015560408201518160020160006101000a8154816001600160a01b0302191690836001600160a01b03160217905550606082015181600301556080820151816004015560a0820151816005015560c08201518160060160006101000a81548160ff02191690831515021790555060e08201518160060160016101000a8154816001600160a01b0302191690836001600160a01b031602179055509050506040518060400160405280856001600160a01b03168152602001848152506040516114c8919081516001600160a01b0316815260208083015190820152604001919050565b60408051918290038220888352602083018890529142916001600160a01b038616917f7cf5182d771e6ff1a7a13e8b1c63f6675c2f9a47d1a2776aebd7604ce64686a091016109c8565b3360009081526001602052604090205461157c5760405162461bcd60e51b815260206004820152602560248201527f596f7520646f206e6f74206861766520616e792066756e647320746f20776974604482015264686472617760d81b60648201526084016104b7565b33600081815260016020526040808220805490839055905190929183156108fc02918491818181858888f193505050501580156115bd573d6000803e3d6000fd5b506040514290829033907fa7d0865b8fbb68357ee9c19f983169bf2f948396756e2ff3942b2bd5fc287a1f90600090a450565b6001600160a01b03808216600090815260208181526040808320868452825291829020825161010080820185528254861680835260018401549483019490945260028301548616948201949094526003820154606082015260048201546080820152600582015460a082015260069091015460ff8116151560c08301529290920490921660e0820152906116965760405162461bcd60e51b81526004016104b7906118fd565b60c0810151611766574281608001511161176657600160c082018181526001600160a01b03808516600090815260208181526040808320898452825291829020865181549085166001600160a01b031991821617825591870151958101959095559085015160028501805491841691909216179055606084015160038401556080840151600484015560a0840151600584015590516006909201805460e085015190921661010002610100600160a81b0319931515939093166001600160a81b0319909216919091179190911790555b505050565b508054600082556003029060005260206000209081019061178c919061178f565b50565b5b808211156117bc5780546001600160a01b03191681556000600182018190556002820155600301611790565b5090565b6000602082840312156117d1578081fd5b81356117dc816119c8565b9392505050565b600080604083850312156117f5578081fd5b8235611800816119c8565b946020939093013593505050565b600080600060608486031215611822578081fd5b833561182d816119c8565b95602085013595506040909401359392505050565b60008060408385031215611854578182fd5b823591506020830135611866816119c8565b809150509250929050565b600080600060608486031215611885578283fd5b833592506020840135611897816119c8565b929592945050506040919091013590565b600080600080600060a086880312156118bf578081fd5b853594506020860135935060408601356118d8816119c8565b92506060860135915060808601356118ef816119c8565b809150509295509295909350565b60208082526027908201527f41756374696f6e20666f722074686973204e4654206973206e6f7420696e2070604082015266726f677265737360c81b606082015260800190565b60008219821115611957576119576119b2565b500190565b60008261197757634e487b7160e01b81526012600452602481fd5b500490565b6000816000190483118215151615611996576119966119b2565b500290565b6000828210156119ad576119ad6119b2565b500390565b634e487b7160e01b600052601160045260246000fd5b6001600160a01b038116811461178c57600080fdfea2646970667358221220df4045983d9945a699be2b2fb4b232bfeb383ea23ea7eac7ba941e6173256def64736f6c63430008040033",
  "linkReferences": {},
  "deployedLinkReferences": {}
}