{
  "_format": "hh-sol-artifact-1",
  "contractName": "NFT",
  "sourceName": "contracts/NFT.sol",
  "abi": [
    {
      "inputs": [
        {
          "internalType": "address",
          "name": "marketplaceAddress",
          "type": "address"
        },
        {
          "internalType": "string",
          "name": "name",
          "type": "string"
        },
        {
          "internalType": "string",
          "name": "symbol",
          "type": "string"
        },
        {
          "internalType": "string",
          "name": "baseURI_",
          "type": "string"
        }
      ],
      "stateMutability": "nonpayable",
      "type": "constructor"
    },
    {
      "anonymous": false,
      "inputs": [
        {
          "indexed": true,
          "internalType": "address",
          "name": "owner",
          "type": "address"
        },
        {
          "indexed": true,
          "internalType": "address",
          "name": "approved",
          "type": "address"
        },
        {
          "indexed": true,
          "internalType": "uint256",
          "name": "tokenId",
          "type": "uint256"
        }
      ],
      "name": "Approval",
      "type": "event"
    },
    {
      "anonymous": false,
      "inputs": [
        {
          "indexed": true,
          "internalType": "address",
          "name": "owner",
          "type": "address"
        },
        {
          "indexed": true,
          "internalType": "address",
          "name": "operator",
          "type": "address"
        },
        {
          "indexed": false,
          "internalType": "bool",
          "name": "approved",
          "type": "bool"
        }
      ],
      "name": "ApprovalForAll",
      "type": "event"
    },
    {
      "anonymous": false,
      "inputs": [
        {
          "indexed": true,
          "internalType": "address",
          "name": "from",
          "type": "address"
        },
        {
          "indexed": true,
          "internalType": "address",
          "name": "to",
          "type": "address"
        },
        {
          "indexed": true,
          "internalType": "uint256",
          "name": "tokenId",
          "type": "uint256"
        }
      ],
      "name": "Transfer",
      "type": "event"
    },
    {
      "inputs": [
        {
          "internalType": "address",
          "name": "to",
          "type": "address"
        },
        {
          "internalType": "uint256",
          "name": "tokenId",
          "type": "uint256"
        }
      ],
      "name": "approve",
      "outputs": [],
      "stateMutability": "nonpayable",
      "type": "function"
    },
    {
      "inputs": [
        {
          "internalType": "address",
          "name": "owner",
          "type": "address"
        }
      ],
      "name": "balanceOf",
      "outputs": [
        {
          "internalType": "uint256",
          "name": "",
          "type": "uint256"
        }
      ],
      "stateMutability": "view",
      "type": "function"
    },
    {
      "inputs": [],
      "name": "baseURI",
      "outputs": [
        {
          "internalType": "string",
          "name": "",
          "type": "string"
        }
      ],
      "stateMutability": "view",
      "type": "function"
    },
    {
      "inputs": [
        {
          "internalType": "string",
          "name": "uri",
          "type": "string"
        }
      ],
      "name": "createToken",
      "outputs": [
        {
          "internalType": "uint256",
          "name": "",
          "type": "uint256"
        }
      ],
      "stateMutability": "nonpayable",
      "type": "function"
    },
    {
      "inputs": [
        {
          "internalType": "uint256",
          "name": "tokenId",
          "type": "uint256"
        }
      ],
      "name": "getApproved",
      "outputs": [
        {
          "internalType": "address",
          "name": "",
          "type": "address"
        }
      ],
      "stateMutability": "view",
      "type": "function"
    },
    {
      "inputs": [
        {
          "internalType": "address",
          "name": "owner",
          "type": "address"
        },
        {
          "internalType": "address",
          "name": "operator",
          "type": "address"
        }
      ],
      "name": "isApprovedForAll",
      "outputs": [
        {
          "internalType": "bool",
          "name": "",
          "type": "bool"
        }
      ],
      "stateMutability": "view",
      "type": "function"
    },
    {
      "inputs": [],
      "name": "name",
      "outputs": [
        {
          "internalType": "string",
          "name": "",
          "type": "string"
        }
      ],
      "stateMutability": "view",
      "type": "function"
    },
    {
      "inputs": [
        {
          "internalType": "uint256",
          "name": "tokenId",
          "type": "uint256"
        }
      ],
      "name": "ownerOf",
      "outputs": [
        {
          "internalType": "address",
          "name": "",
          "type": "address"
        }
      ],
      "stateMutability": "view",
      "type": "function"
    },
    {
      "inputs": [
        {
          "internalType": "address",
          "name": "from",
          "type": "address"
        },
        {
          "internalType": "address",
          "name": "to",
          "type": "address"
        },
        {
          "internalType": "uint256",
          "name": "tokenId",
          "type": "uint256"
        }
      ],
      "name": "safeTransferFrom",
      "outputs": [],
      "stateMutability": "nonpayable",
      "type": "function"
    },
    {
      "inputs": [
        {
          "internalType": "address",
          "name": "from",
          "type": "address"
        },
        {
          "internalType": "address",
          "name": "to",
          "type": "address"
        },
        {
          "internalType": "uint256",
          "name": "tokenId",
          "type": "uint256"
        },
        {
          "internalType": "bytes",
          "name": "_data",
          "type": "bytes"
        }
      ],
      "name": "safeTransferFrom",
      "outputs": [],
      "stateMutability": "nonpayable",
      "type": "function"
    },
    {
      "inputs": [
        {
          "internalType": "address",
          "name": "operator",
          "type": "address"
        },
        {
          "internalType": "bool",
          "name": "approved",
          "type": "bool"
        }
      ],
      "name": "setApprovalForAll",
      "outputs": [],
      "stateMutability": "nonpayable",
      "type": "function"
    },
    {
      "inputs": [
        {
          "internalType": "bytes4",
          "name": "interfaceId",
          "type": "bytes4"
        }
      ],
      "name": "supportsInterface",
      "outputs": [
        {
          "internalType": "bool",
          "name": "",
          "type": "bool"
        }
      ],
      "stateMutability": "view",
      "type": "function"
    },
    {
      "inputs": [],
      "name": "symbol",
      "outputs": [
        {
          "internalType": "string",
          "name": "",
          "type": "string"
        }
      ],
      "stateMutability": "view",
      "type": "function"
    },
    {
      "inputs": [
        {
          "internalType": "uint256",
          "name": "index",
          "type": "uint256"
        }
      ],
      "name": "tokenByIndex",
      "outputs": [
        {
          "internalType": "uint256",
          "name": "",
          "type": "uint256"
        }
      ],
      "stateMutability": "view",
      "type": "function"
    },
    {
      "inputs": [
        {
          "internalType": "address",
          "name": "owner",
          "type": "address"
        },
        {
          "internalType": "uint256",
          "name": "index",
          "type": "uint256"
        }
      ],
      "name": "tokenOfOwnerByIndex",
      "outputs": [
        {
          "internalType": "uint256",
          "name": "",
          "type": "uint256"
        }
      ],
      "stateMutability": "view",
      "type": "function"
    },
    {
      "inputs": [
        {
          "internalType": "uint256",
          "name": "tokenId",
          "type": "uint256"
        }
      ],
      "name": "tokenURI",
      "outputs": [
        {
          "internalType": "string",
          "name": "",
          "type": "string"
        }
      ],
      "stateMutability": "view",
      "type": "function"
    },
    {
      "inputs": [],
      "name": "totalSupply",
      "outputs": [
        {
          "internalType": "uint256",
          "name": "",
          "type": "uint256"
        }
      ],
      "stateMutability": "view",
      "type": "function"
    },
    {
      "inputs": [
        {
          "internalType": "address",
          "name": "from",
          "type": "address"
        },
        {
          "internalType": "address",
          "name": "to",
          "type": "address"
        },
        {
          "internalType": "uint256",
          "name": "tokenId",
          "type": "uint256"
        }
      ],
      "name": "transferFrom",
      "outputs": [],
      "stateMutability": "nonpayable",
      "type": "function"
    }
  ],
  "bytecode": "0x60806040523480156200001157600080fd5b5060405162001f2538038062001f258339810160408190526200003491620001fa565b8251839083906200004d906000906020850190620000a1565b50805162000063906001906020840190620000a1565b5050600c80546001600160a01b0319166001600160a01b0387161790555080516200009690600d906020840190620000a1565b5050505050620002fa565b828054620000af90620002a7565b90600052602060002090601f016020900481019282620000d357600085556200011e565b82601f10620000ee57805160ff19168380011785556200011e565b828001600101855582156200011e579182015b828111156200011e57825182559160200191906001019062000101565b506200012c92915062000130565b5090565b5b808211156200012c576000815560010162000131565b600082601f83011262000158578081fd5b81516001600160401b0380821115620001755762000175620002e4565b604051601f8301601f19908116603f01168101908282118183101715620001a057620001a0620002e4565b81604052838152602092508683858801011115620001bc578485fd5b8491505b83821015620001df5785820183015181830184015290820190620001c0565b83821115620001f057848385830101525b9695505050505050565b6000806000806080858703121562000210578384fd5b84516001600160a01b038116811462000227578485fd5b60208601519094506001600160401b038082111562000244578485fd5b620002528883890162000147565b9450604087015191508082111562000268578384fd5b620002768883890162000147565b935060608701519150808211156200028c578283fd5b506200029b8782880162000147565b91505092959194509250565b600181811c90821680620002bc57607f821691505b60208210811415620002de57634e487b7160e01b600052602260045260246000fd5b50919050565b634e487b7160e01b600052604160045260246000fd5b611c1b806200030a6000396000f3fe608060405234801561001057600080fd5b50600436106101165760003560e01c80634f6ccce7116100a257806395d89b411161007157806395d89b4114610237578063a22cb4651461023f578063b88d4fde14610252578063c87b56dd14610265578063e985e9c51461027857600080fd5b80634f6ccce7146101f65780636352211e146102095780636c0360eb1461021c57806370a082311461022457600080fd5b806318160ddd116100e957806318160ddd1461019857806323b872dd146101aa5780632f745c59146101bd57806342842e0e146101d057806345576f94146101e357600080fd5b806301ffc9a71461011b57806306fdde0314610143578063081812fc14610158578063095ea7b314610183575b600080fd5b61012e6101293660046118cd565b6102b4565b60405190151581526020015b60405180910390f35b61014b6102c5565b60405161013a91906119fb565b61016b61016636600461194b565b610357565b6040516001600160a01b03909116815260200161013a565b6101966101913660046118a4565b6103e4565b005b6008545b60405190815260200161013a565b6101966101b83660046117b6565b6104fa565b61019c6101cb3660046118a4565b61052b565b6101966101de3660046117b6565b6105c1565b61019c6101f1366004611905565b6105dc565b61019c61020436600461194b565b610623565b61016b61021736600461194b565b6106c4565b61014b61073b565b61019c61023236600461176a565b6107c9565b61014b610850565b61019661024d36600461186a565b61085f565b6101966102603660046117f1565b61086e565b61014b61027336600461194b565b6108a6565b61012e610286366004611784565b6001600160a01b03918216600090815260056020908152604080832093909416825291909152205460ff1690565b60006102bf826108b1565b92915050565b6060600080546102d490611b20565b80601f016020809104026020016040519081016040528092919081815260200182805461030090611b20565b801561034d5780601f106103225761010080835404028352916020019161034d565b820191906000526020600020905b81548152906001019060200180831161033057829003601f168201915b5050505050905090565b6000610362826108d6565b6103c85760405162461bcd60e51b815260206004820152602c60248201527f4552433732313a20617070726f76656420717565727920666f72206e6f6e657860448201526b34b9ba32b73a103a37b5b2b760a11b60648201526084015b60405180910390fd5b506000908152600460205260409020546001600160a01b031690565b60006103ef826106c4565b9050806001600160a01b0316836001600160a01b0316141561045d5760405162461bcd60e51b815260206004820152602160248201527f4552433732313a20617070726f76616c20746f2063757272656e74206f776e656044820152603960f91b60648201526084016103bf565b336001600160a01b038216148061047957506104798133610286565b6104eb5760405162461bcd60e51b815260206004820152603860248201527f4552433732313a20617070726f76652063616c6c6572206973206e6f74206f7760448201527f6e6572206e6f7220617070726f76656420666f7220616c6c000000000000000060648201526084016103bf565b6104f583836108f3565b505050565b6105043382610961565b6105205760405162461bcd60e51b81526004016103bf90611a60565b6104f5838383610a4b565b6000610536836107c9565b82106105985760405162461bcd60e51b815260206004820152602b60248201527f455243373231456e756d657261626c653a206f776e657220696e646578206f7560448201526a74206f6620626f756e647360a81b60648201526084016103bf565b506001600160a01b03919091166000908152600660209081526040808320938352929052205490565b6104f58383836040518060200160405280600081525061086e565b6000806105e8600b5490565b90506105f8600b80546001019055565b6106023382610bf6565b600c54610619906001600160a01b0316600161085f565b6102bf8184610c10565b600061062e60085490565b82106106915760405162461bcd60e51b815260206004820152602c60248201527f455243373231456e756d657261626c653a20676c6f62616c20696e646578206f60448201526b7574206f6620626f756e647360a01b60648201526084016103bf565b600882815481106106b257634e487b7160e01b600052603260045260246000fd5b90600052602060002001549050919050565b6000818152600260205260408120546001600160a01b0316806102bf5760405162461bcd60e51b815260206004820152602960248201527f4552433732313a206f776e657220717565727920666f72206e6f6e657869737460448201526832b73a103a37b5b2b760b91b60648201526084016103bf565b600d805461074890611b20565b80601f016020809104026020016040519081016040528092919081815260200182805461077490611b20565b80156107c15780601f10610796576101008083540402835291602001916107c1565b820191906000526020600020905b8154815290600101906020018083116107a457829003601f168201915b505050505081565b60006001600160a01b0382166108345760405162461bcd60e51b815260206004820152602a60248201527f4552433732313a2062616c616e636520717565727920666f7220746865207a65604482015269726f206164647265737360b01b60648201526084016103bf565b506001600160a01b031660009081526003602052604090205490565b6060600180546102d490611b20565b61086a338383610c9b565b5050565b6108783383610961565b6108945760405162461bcd60e51b81526004016103bf90611a60565b6108a084848484610d6a565b50505050565b60606102bf82610d9d565b60006001600160e01b0319821663780e9d6360e01b14806102bf57506102bf82610eff565b6000908152600260205260409020546001600160a01b0316151590565b600081815260046020526040902080546001600160a01b0319166001600160a01b0384169081179091558190610928826106c4565b6001600160a01b03167f8c5be1e5ebec7d5bd14f71427d1e84f3dd0314c0f7b2291e5b200ac8c7c3b92560405160405180910390a45050565b600061096c826108d6565b6109cd5760405162461bcd60e51b815260206004820152602c60248201527f4552433732313a206f70657261746f7220717565727920666f72206e6f6e657860448201526b34b9ba32b73a103a37b5b2b760a11b60648201526084016103bf565b60006109d8836106c4565b9050806001600160a01b0316846001600160a01b03161480610a135750836001600160a01b0316610a0884610357565b6001600160a01b0316145b80610a4357506001600160a01b0380821660009081526005602090815260408083209388168352929052205460ff165b949350505050565b826001600160a01b0316610a5e826106c4565b6001600160a01b031614610ac65760405162461bcd60e51b815260206004820152602960248201527f4552433732313a207472616e73666572206f6620746f6b656e2074686174206960448201526839903737ba1037bbb760b91b60648201526084016103bf565b6001600160a01b038216610b285760405162461bcd60e51b8152602060048201526024808201527f4552433732313a207472616e7366657220746f20746865207a65726f206164646044820152637265737360e01b60648201526084016103bf565b610b33838383610f4f565b610b3e6000826108f3565b6001600160a01b0383166000908152600360205260408120805460019290610b67908490611add565b90915550506001600160a01b0382166000908152600360205260408120805460019290610b95908490611ab1565b909155505060008181526002602052604080822080546001600160a01b0319166001600160a01b0386811691821790925591518493918716917fddf252ad1be2c89b69c2b068fc378daa952ba7f163c4a11628f55a4df523b3ef91a4505050565b61086a828260405180602001604052806000815250610f5a565b610c19826108d6565b610c7c5760405162461bcd60e51b815260206004820152602e60248201527f45524337323155524953746f726167653a2055524920736574206f66206e6f6e60448201526d32bc34b9ba32b73a103a37b5b2b760911b60648201526084016103bf565b6000828152600a6020908152604090912082516104f59284019061163f565b816001600160a01b0316836001600160a01b03161415610cfd5760405162461bcd60e51b815260206004820152601960248201527f4552433732313a20617070726f766520746f2063616c6c65720000000000000060448201526064016103bf565b6001600160a01b03838116600081815260056020908152604080832094871680845294825291829020805460ff191686151590811790915591519182527f17307eab39ab6107e8899845ad3d59bd9653f200f220920489ca2b5937696c31910160405180910390a3505050565b610d75848484610a4b565b610d8184848484610f8d565b6108a05760405162461bcd60e51b81526004016103bf90611a0e565b6060610da8826108d6565b610e0e5760405162461bcd60e51b815260206004820152603160248201527f45524337323155524953746f726167653a2055524920717565727920666f72206044820152703737b732bc34b9ba32b73a103a37b5b2b760791b60648201526084016103bf565b6000828152600a602052604081208054610e2790611b20565b80601f0160208091040260200160405190810160405280929190818152602001828054610e5390611b20565b8015610ea05780601f10610e7557610100808354040283529160200191610ea0565b820191906000526020600020905b815481529060010190602001808311610e8357829003601f168201915b505050505090506000610eb161109a565b9050805160001415610ec4575092915050565b815115610ef6578082604051602001610ede92919061198f565b60405160208183030381529060405292505050919050565b610a43846110a9565b60006001600160e01b031982166380ac58cd60e01b1480610f3057506001600160e01b03198216635b5e139f60e01b145b806102bf57506301ffc9a760e01b6001600160e01b03198316146102bf565b6104f5838383611174565b610f64838361122c565b610f716000848484610f8d565b6104f55760405162461bcd60e51b81526004016103bf90611a0e565b60006001600160a01b0384163b1561108f57604051630a85bd0160e11b81526001600160a01b0385169063150b7a0290610fd19033908990889088906004016119be565b602060405180830381600087803b158015610feb57600080fd5b505af192505050801561101b575060408051601f3d908101601f19168201909252611018918101906118e9565b60015b611075573d808015611049576040519150601f19603f3d011682016040523d82523d6000602084013e61104e565b606091505b50805161106d5760405162461bcd60e51b81526004016103bf90611a0e565b805181602001fd5b6001600160e01b031916630a85bd0160e11b149050610a43565b506001949350505050565b6060600d80546102d490611b20565b60606110b4826108d6565b6111185760405162461bcd60e51b815260206004820152602f60248201527f4552433732314d657461646174613a2055524920717565727920666f72206e6f60448201526e3732bc34b9ba32b73a103a37b5b2b760891b60648201526084016103bf565b600061112261109a565b90506000815111611142576040518060200160405280600081525061116d565b8061114c8461136b565b60405160200161115d92919061198f565b6040516020818303038152906040525b9392505050565b6001600160a01b0383166111cf576111ca81600880546000838152600960205260408120829055600182018355919091527ff3f7a9fe364faab93b216da50a3214154f22a0a2b415b23a84c8169e8b636ee30155565b6111f2565b816001600160a01b0316836001600160a01b0316146111f2576111f28382611485565b6001600160a01b038216611209576104f581611522565b826001600160a01b0316826001600160a01b0316146104f5576104f582826115fb565b6001600160a01b0382166112825760405162461bcd60e51b815260206004820181905260248201527f4552433732313a206d696e7420746f20746865207a65726f206164647265737360448201526064016103bf565b61128b816108d6565b156112d85760405162461bcd60e51b815260206004820152601c60248201527f4552433732313a20746f6b656e20616c7265616479206d696e7465640000000060448201526064016103bf565b6112e460008383610f4f565b6001600160a01b038216600090815260036020526040812080546001929061130d908490611ab1565b909155505060008181526002602052604080822080546001600160a01b0319166001600160a01b03861690811790915590518392907fddf252ad1be2c89b69c2b068fc378daa952ba7f163c4a11628f55a4df523b3ef908290a45050565b60608161138f5750506040805180820190915260018152600360fc1b602082015290565b8160005b81156113b957806113a381611b5b565b91506113b29050600a83611ac9565b9150611393565b60008167ffffffffffffffff8111156113e257634e487b7160e01b600052604160045260246000fd5b6040519080825280601f01601f19166020018201604052801561140c576020820181803683370190505b5090505b8415610a4357611421600183611add565b915061142e600a86611b76565b611439906030611ab1565b60f81b81838151811061145c57634e487b7160e01b600052603260045260246000fd5b60200101906001600160f81b031916908160001a90535061147e600a86611ac9565b9450611410565b60006001611492846107c9565b61149c9190611add565b6000838152600760205260409020549091508082146114ef576001600160a01b03841660009081526006602090815260408083208584528252808320548484528184208190558352600790915290208190555b5060009182526007602090815260408084208490556001600160a01b039094168352600681528383209183525290812055565b60085460009061153490600190611add565b6000838152600960205260408120546008805493945090928490811061156a57634e487b7160e01b600052603260045260246000fd5b90600052602060002001549050806008838154811061159957634e487b7160e01b600052603260045260246000fd5b60009182526020808320909101929092558281526009909152604080822084905585825281205560088054806115df57634e487b7160e01b600052603160045260246000fd5b6001900381819060005260206000200160009055905550505050565b6000611606836107c9565b6001600160a01b039093166000908152600660209081526040808320868452825280832085905593825260079052919091209190915550565b82805461164b90611b20565b90600052602060002090601f01602090048101928261166d57600085556116b3565b82601f1061168657805160ff19168380011785556116b3565b828001600101855582156116b3579182015b828111156116b3578251825591602001919060010190611698565b506116bf9291506116c3565b5090565b5b808211156116bf57600081556001016116c4565b600067ffffffffffffffff808411156116f3576116f3611bb6565b604051601f8501601f19908116603f0116810190828211818310171561171b5761171b611bb6565b8160405280935085815286868601111561173457600080fd5b858560208301376000602087830101525050509392505050565b80356001600160a01b038116811461176557600080fd5b919050565b60006020828403121561177b578081fd5b61116d8261174e565b60008060408385031215611796578081fd5b61179f8361174e565b91506117ad6020840161174e565b90509250929050565b6000806000606084860312156117ca578081fd5b6117d38461174e565b92506117e16020850161174e565b9150604084013590509250925092565b60008060008060808587031215611806578081fd5b61180f8561174e565b935061181d6020860161174e565b925060408501359150606085013567ffffffffffffffff81111561183f578182fd5b8501601f8101871361184f578182fd5b61185e878235602084016116d8565b91505092959194509250565b6000806040838503121561187c578182fd5b6118858361174e565b915060208301358015158114611899578182fd5b809150509250929050565b600080604083850312156118b6578182fd5b6118bf8361174e565b946020939093013593505050565b6000602082840312156118de578081fd5b813561116d81611bcc565b6000602082840312156118fa578081fd5b815161116d81611bcc565b600060208284031215611916578081fd5b813567ffffffffffffffff81111561192c578182fd5b8201601f8101841361193c578182fd5b610a43848235602084016116d8565b60006020828403121561195c578081fd5b5035919050565b6000815180845261197b816020860160208601611af4565b601f01601f19169290920160200192915050565b600083516119a1818460208801611af4565b8351908301906119b5818360208801611af4565b01949350505050565b6001600160a01b03858116825284166020820152604081018390526080606082018190526000906119f190830184611963565b9695505050505050565b60208152600061116d6020830184611963565b60208082526032908201527f4552433732313a207472616e7366657220746f206e6f6e20455243373231526560408201527131b2b4bb32b91034b6b83632b6b2b73a32b960711b606082015260800190565b60208082526031908201527f4552433732313a207472616e736665722063616c6c6572206973206e6f74206f6040820152701ddb995c881b9bdc88185c1c1c9bdd9959607a1b606082015260800190565b60008219821115611ac457611ac4611b8a565b500190565b600082611ad857611ad8611ba0565b500490565b600082821015611aef57611aef611b8a565b500390565b60005b83811015611b0f578181015183820152602001611af7565b838111156108a05750506000910152565b600181811c90821680611b3457607f821691505b60208210811415611b5557634e487b7160e01b600052602260045260246000fd5b50919050565b6000600019821415611b6f57611b6f611b8a565b5060010190565b600082611b8557611b85611ba0565b500690565b634e487b7160e01b600052601160045260246000fd5b634e487b7160e01b600052601260045260246000fd5b634e487b7160e01b600052604160045260246000fd5b6001600160e01b031981168114611be257600080fd5b5056fea26469706673582212204344fc5716fd5670fd53ef8f7f00762bb4d9a694dff477e261abea070645eca764736f6c63430008040033",
  "linkReferences": {},
  "deployedLinkReferences": {}
}