{
  "_format": "hh-sol-artifact-1",
  "contractName": "NFT",
  "sourceName": "contracts/NFT.sol",
  "abi": [
    {
      "inputs": [
        {
          "internalType": "address",
          "name": "marketplaceAddress",
          "type": "address"
        },
        {
          "internalType": "string",
          "name": "name",
          "type": "string"
        },
        {
          "internalType": "string",
          "name": "symbol",
          "type": "string"
        },
        {
          "internalType": "string",
          "name": "baseURI_",
          "type": "string"
        }
      ],
      "stateMutability": "nonpayable",
      "type": "constructor"
    },
    {
      "anonymous": false,
      "inputs": [
        {
          "indexed": true,
          "internalType": "address",
          "name": "owner",
          "type": "address"
        },
        {
          "indexed": true,
          "internalType": "address",
          "name": "approved",
          "type": "address"
        },
        {
          "indexed": true,
          "internalType": "uint256",
          "name": "tokenId",
          "type": "uint256"
        }
      ],
      "name": "Approval",
      "type": "event"
    },
    {
      "anonymous": false,
      "inputs": [
        {
          "indexed": true,
          "internalType": "address",
          "name": "owner",
          "type": "address"
        },
        {
          "indexed": true,
          "internalType": "address",
          "name": "operator",
          "type": "address"
        },
        {
          "indexed": false,
          "internalType": "bool",
          "name": "approved",
          "type": "bool"
        }
      ],
      "name": "ApprovalForAll",
      "type": "event"
    },
    {
      "anonymous": false,
      "inputs": [
        {
          "indexed": true,
          "internalType": "address",
          "name": "from",
          "type": "address"
        },
        {
          "indexed": true,
          "internalType": "address",
          "name": "to",
          "type": "address"
        },
        {
          "indexed": true,
          "internalType": "uint256",
          "name": "tokenId",
          "type": "uint256"
        }
      ],
      "name": "Transfer",
      "type": "event"
    },
    {
      "inputs": [
        {
          "internalType": "address",
          "name": "to",
          "type": "address"
        },
        {
          "internalType": "uint256",
          "name": "tokenId",
          "type": "uint256"
        }
      ],
      "name": "approve",
      "outputs": [],
      "stateMutability": "nonpayable",
      "type": "function"
    },
    {
      "inputs": [
        {
          "internalType": "address",
          "name": "owner",
          "type": "address"
        }
      ],
      "name": "balanceOf",
      "outputs": [
        {
          "internalType": "uint256",
          "name": "",
          "type": "uint256"
        }
      ],
      "stateMutability": "view",
      "type": "function"
    },
    {
      "inputs": [],
      "name": "baseURI",
      "outputs": [
        {
          "internalType": "string",
          "name": "",
          "type": "string"
        }
      ],
      "stateMutability": "view",
      "type": "function"
    },
    {
      "inputs": [
        {
          "internalType": "string",
          "name": "tokenURI",
          "type": "string"
        }
      ],
      "name": "createToken",
      "outputs": [
        {
          "internalType": "uint256",
          "name": "",
          "type": "uint256"
        }
      ],
      "stateMutability": "nonpayable",
      "type": "function"
    },
    {
      "inputs": [
        {
          "internalType": "uint256",
          "name": "tokenId",
          "type": "uint256"
        }
      ],
      "name": "getApproved",
      "outputs": [
        {
          "internalType": "address",
          "name": "",
          "type": "address"
        }
      ],
      "stateMutability": "view",
      "type": "function"
    },
    {
      "inputs": [
        {
          "internalType": "address",
          "name": "owner",
          "type": "address"
        },
        {
          "internalType": "address",
          "name": "operator",
          "type": "address"
        }
      ],
      "name": "isApprovedForAll",
      "outputs": [
        {
          "internalType": "bool",
          "name": "",
          "type": "bool"
        }
      ],
      "stateMutability": "view",
      "type": "function"
    },
    {
      "inputs": [],
      "name": "name",
      "outputs": [
        {
          "internalType": "string",
          "name": "",
          "type": "string"
        }
      ],
      "stateMutability": "view",
      "type": "function"
    },
    {
      "inputs": [
        {
          "internalType": "uint256",
          "name": "tokenId",
          "type": "uint256"
        }
      ],
      "name": "ownerOf",
      "outputs": [
        {
          "internalType": "address",
          "name": "",
          "type": "address"
        }
      ],
      "stateMutability": "view",
      "type": "function"
    },
    {
      "inputs": [
        {
          "internalType": "address",
          "name": "from",
          "type": "address"
        },
        {
          "internalType": "address",
          "name": "to",
          "type": "address"
        },
        {
          "internalType": "uint256",
          "name": "tokenId",
          "type": "uint256"
        }
      ],
      "name": "safeTransferFrom",
      "outputs": [],
      "stateMutability": "nonpayable",
      "type": "function"
    },
    {
      "inputs": [
        {
          "internalType": "address",
          "name": "from",
          "type": "address"
        },
        {
          "internalType": "address",
          "name": "to",
          "type": "address"
        },
        {
          "internalType": "uint256",
          "name": "tokenId",
          "type": "uint256"
        },
        {
          "internalType": "bytes",
          "name": "_data",
          "type": "bytes"
        }
      ],
      "name": "safeTransferFrom",
      "outputs": [],
      "stateMutability": "nonpayable",
      "type": "function"
    },
    {
      "inputs": [
        {
          "internalType": "address",
          "name": "operator",
          "type": "address"
        },
        {
          "internalType": "bool",
          "name": "approved",
          "type": "bool"
        }
      ],
      "name": "setApprovalForAll",
      "outputs": [],
      "stateMutability": "nonpayable",
      "type": "function"
    },
    {
      "inputs": [
        {
          "internalType": "bytes4",
          "name": "interfaceId",
          "type": "bytes4"
        }
      ],
      "name": "supportsInterface",
      "outputs": [
        {
          "internalType": "bool",
          "name": "",
          "type": "bool"
        }
      ],
      "stateMutability": "view",
      "type": "function"
    },
    {
      "inputs": [],
      "name": "symbol",
      "outputs": [
        {
          "internalType": "string",
          "name": "",
          "type": "string"
        }
      ],
      "stateMutability": "view",
      "type": "function"
    },
    {
      "inputs": [
        {
          "internalType": "uint256",
          "name": "tokenId",
          "type": "uint256"
        }
      ],
      "name": "tokenURI",
      "outputs": [
        {
          "internalType": "string",
          "name": "",
          "type": "string"
        }
      ],
      "stateMutability": "view",
      "type": "function"
    },
    {
      "inputs": [
        {
          "internalType": "address",
          "name": "from",
          "type": "address"
        },
        {
          "internalType": "address",
          "name": "to",
          "type": "address"
        },
        {
          "internalType": "uint256",
          "name": "tokenId",
          "type": "uint256"
        }
      ],
      "name": "transferFrom",
      "outputs": [],
      "stateMutability": "nonpayable",
      "type": "function"
    }
  ],
  "bytecode": "0x60806040523480156200001157600080fd5b5060405162001a8838038062001a888339810160408190526200003491620001fa565b8251839083906200004d906000906020850190620000a1565b50805162000063906001906020840190620000a1565b5050600880546001600160a01b0319166001600160a01b03871617905550805162000096906009906020840190620000a1565b5050505050620002fa565b828054620000af90620002a7565b90600052602060002090601f016020900481019282620000d357600085556200011e565b82601f10620000ee57805160ff19168380011785556200011e565b828001600101855582156200011e579182015b828111156200011e57825182559160200191906001019062000101565b506200012c92915062000130565b5090565b5b808211156200012c576000815560010162000131565b600082601f83011262000158578081fd5b81516001600160401b0380821115620001755762000175620002e4565b604051601f8301601f19908116603f01168101908282118183101715620001a057620001a0620002e4565b81604052838152602092508683858801011115620001bc578485fd5b8491505b83821015620001df5785820183015181830184015290820190620001c0565b83821115620001f057848385830101525b9695505050505050565b6000806000806080858703121562000210578384fd5b84516001600160a01b038116811462000227578485fd5b60208601519094506001600160401b038082111562000244578485fd5b620002528883890162000147565b9450604087015191508082111562000268578384fd5b620002768883890162000147565b935060608701519150808211156200028c578283fd5b506200029b8782880162000147565b91505092959194509250565b600181811c90821680620002bc57607f821691505b60208210811415620002de57634e487b7160e01b600052602260045260246000fd5b50919050565b634e487b7160e01b600052604160045260246000fd5b61177e806200030a6000396000f3fe608060405234801561001057600080fd5b50600436106100f55760003560e01c80636352211e11610097578063a22cb46511610066578063a22cb465146101f4578063b88d4fde14610207578063c87b56dd1461021a578063e985e9c51461022d57600080fd5b80636352211e146101be5780636c0360eb146101d157806370a08231146101d957806395d89b41146101ec57600080fd5b8063095ea7b3116100d3578063095ea7b31461016257806323b872dd1461017757806342842e0e1461018a57806345576f941461019d57600080fd5b806301ffc9a7146100fa57806306fdde0314610122578063081812fc14610137575b600080fd5b61010d610108366004611430565b610269565b60405190151581526020015b60405180910390f35b61012a6102bb565b604051610119919061155e565b61014a6101453660046114ae565b61034d565b6040516001600160a01b039091168152602001610119565b610175610170366004611407565b6103da565b005b610175610185366004611319565b6104f0565b610175610198366004611319565b610521565b6101b06101ab366004611468565b61053c565b604051908152602001610119565b61014a6101cc3660046114ae565b610584565b61012a6105fb565b6101b06101e73660046112cd565b610689565b61012a610710565b6101756102023660046113cd565b61071f565b610175610215366004611354565b61072e565b61012a6102283660046114ae565b610766565b61010d61023b3660046112e7565b6001600160a01b03918216600090815260056020908152604080832093909416825291909152205460ff1690565b60006001600160e01b031982166380ac58cd60e01b148061029a57506001600160e01b03198216635b5e139f60e01b145b806102b557506301ffc9a760e01b6001600160e01b03198316145b92915050565b6060600080546102ca90611683565b80601f01602080910402602001604051908101604052809291908181526020018280546102f690611683565b80156103435780601f1061031857610100808354040283529160200191610343565b820191906000526020600020905b81548152906001019060200180831161032657829003601f168201915b5050505050905090565b6000610358826108d0565b6103be5760405162461bcd60e51b815260206004820152602c60248201527f4552433732313a20617070726f76656420717565727920666f72206e6f6e657860448201526b34b9ba32b73a103a37b5b2b760a11b60648201526084015b60405180910390fd5b506000908152600460205260409020546001600160a01b031690565b60006103e582610584565b9050806001600160a01b0316836001600160a01b031614156104535760405162461bcd60e51b815260206004820152602160248201527f4552433732313a20617070726f76616c20746f2063757272656e74206f776e656044820152603960f91b60648201526084016103b5565b336001600160a01b038216148061046f575061046f813361023b565b6104e15760405162461bcd60e51b815260206004820152603860248201527f4552433732313a20617070726f76652063616c6c6572206973206e6f74206f7760448201527f6e6572206e6f7220617070726f76656420666f7220616c6c000000000000000060648201526084016103b5565b6104eb83836108ed565b505050565b6104fa338261095b565b6105165760405162461bcd60e51b81526004016103b5906115c3565b6104eb838383610a41565b6104eb8383836040518060200160405280600081525061072e565b600061054c600780546001019055565b600061055760075490565b90506105633382610be1565b61056d8184610d14565b6008546102b5906001600160a01b0316600161071f565b6000818152600260205260408120546001600160a01b0316806102b55760405162461bcd60e51b815260206004820152602960248201527f4552433732313a206f776e657220717565727920666f72206e6f6e657869737460448201526832b73a103a37b5b2b760b91b60648201526084016103b5565b6009805461060890611683565b80601f016020809104026020016040519081016040528092919081815260200182805461063490611683565b80156106815780601f1061065657610100808354040283529160200191610681565b820191906000526020600020905b81548152906001019060200180831161066457829003601f168201915b505050505081565b60006001600160a01b0382166106f45760405162461bcd60e51b815260206004820152602a60248201527f4552433732313a2062616c616e636520717565727920666f7220746865207a65604482015269726f206164647265737360b01b60648201526084016103b5565b506001600160a01b031660009081526003602052604090205490565b6060600180546102ca90611683565b61072a338383610d9f565b5050565b610738338361095b565b6107545760405162461bcd60e51b81526004016103b5906115c3565b61076084848484610e6e565b50505050565b6060610771826108d0565b6107d75760405162461bcd60e51b815260206004820152603160248201527f45524337323155524953746f726167653a2055524920717565727920666f72206044820152703737b732bc34b9ba32b73a103a37b5b2b760791b60648201526084016103b5565b600082815260066020526040812080546107f090611683565b80601f016020809104026020016040519081016040528092919081815260200182805461081c90611683565b80156108695780601f1061083e57610100808354040283529160200191610869565b820191906000526020600020905b81548152906001019060200180831161084c57829003601f168201915b50505050509050600061087a610ea1565b905080516000141561088d575092915050565b8151156108bf5780826040516020016108a79291906114f2565b60405160208183030381529060405292505050919050565b6108c884610eb0565b949350505050565b6000908152600260205260409020546001600160a01b0316151590565b600081815260046020526040902080546001600160a01b0319166001600160a01b038416908117909155819061092282610584565b6001600160a01b03167f8c5be1e5ebec7d5bd14f71427d1e84f3dd0314c0f7b2291e5b200ac8c7c3b92560405160405180910390a45050565b6000610966826108d0565b6109c75760405162461bcd60e51b815260206004820152602c60248201527f4552433732313a206f70657261746f7220717565727920666f72206e6f6e657860448201526b34b9ba32b73a103a37b5b2b760a11b60648201526084016103b5565b60006109d283610584565b9050806001600160a01b0316846001600160a01b03161480610a0d5750836001600160a01b0316610a028461034d565b6001600160a01b0316145b806108c857506001600160a01b0380821660009081526005602090815260408083209388168352929052205460ff166108c8565b826001600160a01b0316610a5482610584565b6001600160a01b031614610abc5760405162461bcd60e51b815260206004820152602960248201527f4552433732313a207472616e73666572206f6620746f6b656e2074686174206960448201526839903737ba1037bbb760b91b60648201526084016103b5565b6001600160a01b038216610b1e5760405162461bcd60e51b8152602060048201526024808201527f4552433732313a207472616e7366657220746f20746865207a65726f206164646044820152637265737360e01b60648201526084016103b5565b610b296000826108ed565b6001600160a01b0383166000908152600360205260408120805460019290610b52908490611640565b90915550506001600160a01b0382166000908152600360205260408120805460019290610b80908490611614565b909155505060008181526002602052604080822080546001600160a01b0319166001600160a01b0386811691821790925591518493918716917fddf252ad1be2c89b69c2b068fc378daa952ba7f163c4a11628f55a4df523b3ef91a4505050565b6001600160a01b038216610c375760405162461bcd60e51b815260206004820181905260248201527f4552433732313a206d696e7420746f20746865207a65726f206164647265737360448201526064016103b5565b610c40816108d0565b15610c8d5760405162461bcd60e51b815260206004820152601c60248201527f4552433732313a20746f6b656e20616c7265616479206d696e7465640000000060448201526064016103b5565b6001600160a01b0382166000908152600360205260408120805460019290610cb6908490611614565b909155505060008181526002602052604080822080546001600160a01b0319166001600160a01b03861690811790915590518392907fddf252ad1be2c89b69c2b068fc378daa952ba7f163c4a11628f55a4df523b3ef908290a45050565b610d1d826108d0565b610d805760405162461bcd60e51b815260206004820152602e60248201527f45524337323155524953746f726167653a2055524920736574206f66206e6f6e60448201526d32bc34b9ba32b73a103a37b5b2b760911b60648201526084016103b5565b600082815260066020908152604090912082516104eb928401906111a2565b816001600160a01b0316836001600160a01b03161415610e015760405162461bcd60e51b815260206004820152601960248201527f4552433732313a20617070726f766520746f2063616c6c65720000000000000060448201526064016103b5565b6001600160a01b03838116600081815260056020908152604080832094871680845294825291829020805460ff191686151590811790915591519182527f17307eab39ab6107e8899845ad3d59bd9653f200f220920489ca2b5937696c31910160405180910390a3505050565b610e79848484610a41565b610e8584848484610f7b565b6107605760405162461bcd60e51b81526004016103b590611571565b6060600980546102ca90611683565b6060610ebb826108d0565b610f1f5760405162461bcd60e51b815260206004820152602f60248201527f4552433732314d657461646174613a2055524920717565727920666f72206e6f60448201526e3732bc34b9ba32b73a103a37b5b2b760891b60648201526084016103b5565b6000610f29610ea1565b90506000815111610f495760405180602001604052806000815250610f74565b80610f5384611088565b604051602001610f649291906114f2565b6040516020818303038152906040525b9392505050565b60006001600160a01b0384163b1561107d57604051630a85bd0160e11b81526001600160a01b0385169063150b7a0290610fbf903390899088908890600401611521565b602060405180830381600087803b158015610fd957600080fd5b505af1925050508015611009575060408051601f3d908101601f191682019092526110069181019061144c565b60015b611063573d808015611037576040519150601f19603f3d011682016040523d82523d6000602084013e61103c565b606091505b50805161105b5760405162461bcd60e51b81526004016103b590611571565b805181602001fd5b6001600160e01b031916630a85bd0160e11b1490506108c8565b506001949350505050565b6060816110ac5750506040805180820190915260018152600360fc1b602082015290565b8160005b81156110d657806110c0816116be565b91506110cf9050600a8361162c565b91506110b0565b60008167ffffffffffffffff8111156110ff57634e487b7160e01b600052604160045260246000fd5b6040519080825280601f01601f191660200182016040528015611129576020820181803683370190505b5090505b84156108c85761113e600183611640565b915061114b600a866116d9565b611156906030611614565b60f81b81838151811061117957634e487b7160e01b600052603260045260246000fd5b60200101906001600160f81b031916908160001a90535061119b600a8661162c565b945061112d565b8280546111ae90611683565b90600052602060002090601f0160209004810192826111d05760008555611216565b82601f106111e957805160ff1916838001178555611216565b82800160010185558215611216579182015b828111156112165782518255916020019190600101906111fb565b50611222929150611226565b5090565b5b808211156112225760008155600101611227565b600067ffffffffffffffff8084111561125657611256611719565b604051601f8501601f19908116603f0116810190828211818310171561127e5761127e611719565b8160405280935085815286868601111561129757600080fd5b858560208301376000602087830101525050509392505050565b80356001600160a01b03811681146112c857600080fd5b919050565b6000602082840312156112de578081fd5b610f74826112b1565b600080604083850312156112f9578081fd5b611302836112b1565b9150611310602084016112b1565b90509250929050565b60008060006060848603121561132d578081fd5b611336846112b1565b9250611344602085016112b1565b9150604084013590509250925092565b60008060008060808587031215611369578081fd5b611372856112b1565b9350611380602086016112b1565b925060408501359150606085013567ffffffffffffffff8111156113a2578182fd5b8501601f810187136113b2578182fd5b6113c18782356020840161123b565b91505092959194509250565b600080604083850312156113df578182fd5b6113e8836112b1565b9150602083013580151581146113fc578182fd5b809150509250929050565b60008060408385031215611419578182fd5b611422836112b1565b946020939093013593505050565b600060208284031215611441578081fd5b8135610f748161172f565b60006020828403121561145d578081fd5b8151610f748161172f565b600060208284031215611479578081fd5b813567ffffffffffffffff81111561148f578182fd5b8201601f8101841361149f578182fd5b6108c88482356020840161123b565b6000602082840312156114bf578081fd5b5035919050565b600081518084526114de816020860160208601611657565b601f01601f19169290920160200192915050565b60008351611504818460208801611657565b835190830190611518818360208801611657565b01949350505050565b6001600160a01b0385811682528416602082015260408101839052608060608201819052600090611554908301846114c6565b9695505050505050565b602081526000610f7460208301846114c6565b60208082526032908201527f4552433732313a207472616e7366657220746f206e6f6e20455243373231526560408201527131b2b4bb32b91034b6b83632b6b2b73a32b960711b606082015260800190565b60208082526031908201527f4552433732313a207472616e736665722063616c6c6572206973206e6f74206f6040820152701ddb995c881b9bdc88185c1c1c9bdd9959607a1b606082015260800190565b60008219821115611627576116276116ed565b500190565b60008261163b5761163b611703565b500490565b600082821015611652576116526116ed565b500390565b60005b8381101561167257818101518382015260200161165a565b838111156107605750506000910152565b600181811c9082168061169757607f821691505b602082108114156116b857634e487b7160e01b600052602260045260246000fd5b50919050565b60006000198214156116d2576116d26116ed565b5060010190565b6000826116e8576116e8611703565b500690565b634e487b7160e01b600052601160045260246000fd5b634e487b7160e01b600052601260045260246000fd5b634e487b7160e01b600052604160045260246000fd5b6001600160e01b03198116811461174557600080fd5b5056fea26469706673582212209cd5dd1b1e802134d00212e15a6f69a0a9a23a817b1a97deeae8613f1d1bbcab64736f6c63430008040033",
  "linkReferences": {},
  "deployedLinkReferences": {}
}