{
  "_format": "hh-sol-artifact-1",
  "contractName": "Auction",
  "sourceName": "contracts/Auction.sol",
  "abi": [
    {
      "inputs": [],
      "stateMutability": "nonpayable",
      "type": "constructor"
    },
    {
      "anonymous": false,
      "inputs": [
        {
          "indexed": true,
          "internalType": "address",
          "name": "previousOwner",
          "type": "address"
        },
        {
          "indexed": true,
          "internalType": "address",
          "name": "newOwner",
          "type": "address"
        }
      ],
      "name": "OwnershipTransferred",
      "type": "event"
    },
    {
      "inputs": [
        {
          "internalType": "uint256",
          "name": "_tokenId",
          "type": "uint256"
        },
        {
          "internalType": "address",
          "name": "_nftContract",
          "type": "address"
        }
      ],
      "name": "_checkAuctionStatus",
      "outputs": [
        {
          "internalType": "bool",
          "name": "",
          "type": "bool"
        }
      ],
      "stateMutability": "view",
      "type": "function"
    },
    {
      "inputs": [
        {
          "internalType": "address",
          "name": "_nftContract",
          "type": "address"
        },
        {
          "internalType": "uint256",
          "name": "_tokenId",
          "type": "uint256"
        }
      ],
      "name": "_updateStatus",
      "outputs": [],
      "stateMutability": "nonpayable",
      "type": "function"
    },
    {
      "inputs": [
        {
          "internalType": "address",
          "name": "_nftContract",
          "type": "address"
        },
        {
          "internalType": "uint256",
          "name": "_tokenId",
          "type": "uint256"
        }
      ],
      "name": "bid",
      "outputs": [],
      "stateMutability": "payable",
      "type": "function"
    },
    {
      "inputs": [
        {
          "internalType": "uint256",
          "name": "_tokenId",
          "type": "uint256"
        },
        {
          "internalType": "address",
          "name": "_nftContract",
          "type": "address"
        }
      ],
      "name": "concludeAuction",
      "outputs": [],
      "stateMutability": "payable",
      "type": "function"
    },
    {
      "inputs": [
        {
          "internalType": "uint256",
          "name": "_basePrice",
          "type": "uint256"
        },
        {
          "internalType": "uint256",
          "name": "_endingUnix",
          "type": "uint256"
        },
        {
          "internalType": "address",
          "name": "_nftContract",
          "type": "address"
        },
        {
          "internalType": "uint256",
          "name": "_tokenId",
          "type": "uint256"
        },
        {
          "internalType": "address",
          "name": "_msgSender",
          "type": "address"
        }
      ],
      "name": "createAuction",
      "outputs": [
        {
          "internalType": "uint256",
          "name": "",
          "type": "uint256"
        }
      ],
      "stateMutability": "nonpayable",
      "type": "function"
    },
    {
      "inputs": [],
      "name": "end",
      "outputs": [
        {
          "internalType": "bool",
          "name": "",
          "type": "bool"
        }
      ],
      "stateMutability": "view",
      "type": "function"
    },
    {
      "inputs": [
        {
          "internalType": "address",
          "name": "_nftContract",
          "type": "address"
        },
        {
          "internalType": "uint256",
          "name": "_tokenId",
          "type": "uint256"
        }
      ],
      "name": "getAuctionEnded",
      "outputs": [
        {
          "internalType": "bool",
          "name": "",
          "type": "bool"
        }
      ],
      "stateMutability": "nonpayable",
      "type": "function"
    },
    {
      "inputs": [],
      "name": "getCurrentTime",
      "outputs": [
        {
          "internalType": "uint256",
          "name": "",
          "type": "uint256"
        }
      ],
      "stateMutability": "view",
      "type": "function"
    },
    {
      "inputs": [
        {
          "internalType": "address",
          "name": "_nftContract",
          "type": "address"
        },
        {
          "internalType": "uint256",
          "name": "_tokenId",
          "type": "uint256"
        }
      ],
      "name": "getHighestBid",
      "outputs": [
        {
          "internalType": "uint256",
          "name": "",
          "type": "uint256"
        }
      ],
      "stateMutability": "view",
      "type": "function"
    },
    {
      "inputs": [
        {
          "internalType": "address",
          "name": "_nftContract",
          "type": "address"
        },
        {
          "internalType": "uint256",
          "name": "_tokenId",
          "type": "uint256"
        }
      ],
      "name": "getLastTime",
      "outputs": [
        {
          "internalType": "uint256",
          "name": "",
          "type": "uint256"
        }
      ],
      "stateMutability": "view",
      "type": "function"
    },
    {
      "inputs": [],
      "name": "getPendingReturns",
      "outputs": [
        {
          "internalType": "uint256",
          "name": "",
          "type": "uint256"
        }
      ],
      "stateMutability": "view",
      "type": "function"
    },
    {
      "inputs": [],
      "name": "owner",
      "outputs": [
        {
          "internalType": "address",
          "name": "",
          "type": "address"
        }
      ],
      "stateMutability": "view",
      "type": "function"
    },
    {
      "inputs": [],
      "name": "renounceOwnership",
      "outputs": [],
      "stateMutability": "nonpayable",
      "type": "function"
    },
    {
      "inputs": [
        {
          "internalType": "address",
          "name": "newOwner",
          "type": "address"
        }
      ],
      "name": "transferOwnership",
      "outputs": [],
      "stateMutability": "nonpayable",
      "type": "function"
    },
    {
      "inputs": [],
      "name": "up",
      "outputs": [
        {
          "internalType": "uint256",
          "name": "",
          "type": "uint256"
        }
      ],
      "stateMutability": "view",
      "type": "function"
    },
    {
      "inputs": [],
      "name": "withdraw",
      "outputs": [],
      "stateMutability": "payable",
      "type": "function"
    }
  ],
  "bytecode": "0x608060405234801561001057600080fd5b5061001a33610028565b61002333610078565b610148565b600080546001600160a01b038381166001600160a01b0319831681178455604051919092169283917f8be0079c531659141344cd1fd0a4f28419497f9722a3daafe3b4186f6b6457e09190a35050565b6000546001600160a01b031633146100d75760405162461bcd60e51b815260206004820181905260248201527f4f776e61626c653a2063616c6c6572206973206e6f7420746865206f776e657260448201526064015b60405180910390fd5b6001600160a01b03811661013c5760405162461bcd60e51b815260206004820152602660248201527f4f776e61626c653a206e6577206f776e657220697320746865207a65726f206160448201526564647265737360d01b60648201526084016100ce565b61014581610028565b50565b6114be80620001586000396000f3fe6080604052600436106100f35760003560e01c80638226508d1161008a578063d712c1e611610059578063d712c1e6146102ca578063eade7f1814610367578063efbe1c1c14610389578063f2fde38b146103a357600080fd5b80638226508d146101cf5780638da5cb5b1461026c578063c217d4d614610294578063d5a49e01146102b457600080fd5b80636bf774a7116100c65780636bf774a714610157578063715018a61461016a5780637665d51f1461017f5780637b0b6f21146101af57600080fd5b806329cb924d146100f85780633ccfd60b1461011a5780634a5503381461012457806359d667a514610144575b600080fd5b34801561010457600080fd5b50425b6040519081526020015b60405180910390f35b6101226103c3565b005b34801561013057600080fd5b5061012261013f366004611366565b61045c565b610122610152366004611366565b61060d565b61012261016536600461138f565b610989565b34801561017657600080fd5b50610122610bcf565b34801561018b57600080fd5b5061019f61019a366004611366565b610c35565b6040519015158152602001610111565b3480156101bb57600080fd5b5061019f6101ca36600461138f565b610cc2565b3480156101db57600080fd5b506101076101ea366004611366565b6001600160a01b03918216600090815260036020818152604080842094845293815291839020835160e081018552815486168152600182015493810193909352600281015490941692820192909252908201546060820181905260048301546080830152600583015460a083015260069092015460ff16151560c09091015290565b34801561027857600080fd5b506000546040516001600160a01b039091168152602001610111565b3480156102a057600080fd5b506101076102af3660046113ba565b610d9c565b3480156102c057600080fd5b5061010760015481565b3480156102d657600080fd5b506101076102e5366004611366565b6001600160a01b03918216600090815260036020818152604080842094845293815291839020835160e081018552815486168152600182015493810193909352600281015490941692820192909252908201546060820152600482015460808201819052600583015460a083015260069092015460ff16151560c09091015290565b34801561037357600080fd5b5033600090815260066020526040902054610107565b34801561039557600080fd5b5060025461019f9060ff1681565b3480156103af57600080fd5b506101226103be366004611345565b610f61565b336000908152600660205260409020546104185760405162461bcd60e51b81526020600482015260116024820152704e6f20546f6b656e732070656e64696e6760781b60448201526064015b60405180910390fd5b33600081815260066020526040808220549051909291829184156108fc0291859190818181858888f19350505050158015610457573d6000803e3d6000fd5b505050565b6001805490600061046c83611457565b90915550506001600160a01b038083166000908152600360208181526040808420868552825292839020835160e081018552815486168152600182015492810192909252600281015490941692810192909252820154606082015260048201546080820152600582015460a082015260069091015460ff1615801560c08301526105315760405162461bcd60e51b8152602060048201526016602482015275151a1a5cc8185d58dd1a5bdb881a185cc8115b99195960521b604482015260640161040f565b6001600160a01b038316600090815260036020908152604080832085845290915290206004015442111561057457600160c082015260008152610574838361102c565b6001600160a01b03928316600090815260036020818152604080842095845294815291849020835181546001600160a01b03199081169188169190911782559284015160018201559383015160028501805490931695169490941790556060810151928201929092556080820151600482015560a0820151600582015560c0909101516006909101805460ff1916911515919091179055565b6001600160a01b038083166000908152600360208181526040808420868552825292839020835160e081018552815486168152600182015492810192909252600281015490941692810192909252820154606082015260048201546080820152600582015460a082015260069091015460ff1615801560c08301526106c85760405162461bcd60e51b8152602060048201526011602482015270105d58dd1a5bdb881a185cc8195b991959607a1b604482015260640161040f565b80516001600160a01b03166107185760405162461bcd60e51b8152602060048201526016602482015275105d58dd1a5bdb88191bd95cc81b9bdd08195e1a5cdd60521b604482015260640161040f565b60c08101516002805460ff1916911515919091179055610738838361045c565b8060800151421015610457573360009081526004602090815260408083206001600160a01b0387168452825280832085845290915290205461077a8134611409565b826060015110801561079957506107918134611409565b826020015111155b6107de5760405162461bcd60e51b8152602060048201526016602482015275506c656173652073656e64206d6f72652066756e647360501b604482015260640161040f565b81516001600160a01b03163314156108435760405162461bcd60e51b815260206004820152602260248201527f596f752063616e6e6f742062696420696e20796f7572206f776e20617563746960448201526137b760f11b606482015260840161040f565b61084d3482611409565b3360008181526004602090815260408083206001600160a01b038a168085529083528184208985528352818420869055606088810187905288830186905290845260058352818420898552909252918290208251918201909252929350919081906001600160a01b0390811682526020808301959095524260409283015283546001808201865560009586528686208551600393840290910180546001600160a01b0319908116928616929092178155868901518184015595850151600296870155998316865281875283862098865297865293829020865181548a16908316178155948601519685019690965584015190830180549096169416939093179093556060810151918301919091556080810151600483015560a0810151600583015560c001516006909101805460ff1916911515919091179055565b6001600160a01b038082166000908152600360208181526040808420878552808352818520825160e0810184528154881680825260018301548287015260028301549098169381019390935293840154606083015260048401546080830152600584015460a083015260069093015460ff16151560c0820152928690525290331480610a3c57506001600160a01b0382811660009081526003602090815260408083208784529091529020600201541633145b610a9f5760405162461bcd60e51b815260206004820152602e60248201527f596f7520617265206e6f7420617574686f72697a656420746f20636f6e636c7560448201526d3232903a34329030bab1ba34b7b760911b606482015260840161040f565b42816080015110610aeb5760405162461bcd60e51b815260206004820152601660248201527541756374696f6e2054696d652072656d61696e696e6760501b604482015260640161040f565b6000610af78484610cc2565b905080610b0857610b08838561045c565b6001600160a01b0383166000818152600360208181526040808420898552825280842080546001600160a01b031990811682556001820186905560028201805490911690559283018490556004830184905560058084018590556006909301805460ff191690559383529081528282208783529052908120610b89916112dc565b606082015182516040516001600160a01b039091169082156108fc029083906000818181858888f19350505050158015610bc7573d6000803e3d6000fd5b505050505050565b6000546001600160a01b03163314610c295760405162461bcd60e51b815260206004820181905260248201527f4f776e61626c653a2063616c6c6572206973206e6f7420746865206f776e6572604482015260640161040f565b610c33600061128c565b565b6001600160a01b0380831660009081526003602081815260408084208685528252808420815160e08101835281548716815260018201549381019390935260028101549095169082015290830154606082015260048301546080820152600583015460a082015260069092015460ff16151560c083015290610cb7848461045c565b60c001519392505050565b6001600160a01b0380821660009081526003602081815260408084208785528252808420815160e0810183528154871680825260018301549482019490945260028201549096169186019190915291820154606085015260048201546080850152600582015460a085015260069091015460ff16151560c0840152909190610cb75760405162461bcd60e51b815260206004820152602760248201527f41756374696f6e20666f722074686973204e4654206973206e6f7420696e2070604482015266726f677265737360c81b606482015260840161040f565b6001600160a01b038316600090815260036020908152604080832085845290915281206005015415610e105760405162461bcd60e51b815260206004820152601f60248201527f5468652041756374696f6e2068617320616c7265616479207374617274656400604482015260640161040f565b610e1b856001611421565b9450610e278542611409565b94506009610e354287611440565b1015610ea05760405162461bcd60e51b815260206004820152603460248201527f54686520656e64696e6720756e69782073686f756c642062652061746c656173604482015273742035206d696e757465732066726f6d206e6f7760601b606482015260840161040f565b506040805160e0810182526001600160a01b039283168152602080820197885260008284018181526060840182815260808501998a524260a0860190815260c08601848152998816845260038086528785209985529890945294909120925183549086166001600160a01b031991821617845598516001840155516002830180549190951698169790971790925551918101919091559151600483015591516005820181905591516006909101805491151560ff1990921691909117905590565b6000546001600160a01b03163314610fbb5760405162461bcd60e51b815260206004820181905260248201527f4f776e61626c653a2063616c6c6572206973206e6f7420746865206f776e6572604482015260640161040f565b6001600160a01b0381166110205760405162461bcd60e51b815260206004820152602660248201527f4f776e61626c653a206e6577206f776e657220697320746865207a65726f206160448201526564647265737360d01b606482015260840161040f565b6110298161128c565b50565b6001600160a01b0382166000908152600560209081526040808320848452825280832080548251818502810185019093528083529192909190849084015b828210156110bf576000848152602090819020604080516060810182526003860290920180546001600160a01b031683526001808201548486015260029091015491830191909152908352909201910161106a565b505050506001600160a01b0384811660009081526003602081815260408084208885528252808420815160e08101835281548716815260018201549381019390935260028101549095169082015290830154606082015260048301546080820152600583015460a082015260069092015460ff16151560c0830152919250905b6001835161114d9190611440565b811161128557816060015183828151811061117857634e487b7160e01b600052603260045260246000fd5b6020026020010151602001511461127357600460008483815181106111ad57634e487b7160e01b600052603260045260246000fd5b6020026020010151600001516001600160a01b03166001600160a01b031681526020019081526020016000206000866001600160a01b03166001600160a01b031681526020019081526020016000206000858152602001908152602001600020546006600085848151811061123257634e487b7160e01b600052603260045260246000fd5b6020026020010151600001516001600160a01b03166001600160a01b03168152602001908152602001600020600082825461126d9190611409565b90915550505b8061127d81611457565b91505061113f565b5050505050565b600080546001600160a01b038381166001600160a01b0319831681178455604051919092169283917f8be0079c531659141344cd1fd0a4f28419497f9722a3daafe3b4186f6b6457e09190a35050565b508054600082556003029060005260206000209081019061102991905b808211156113255780546001600160a01b031916815560006001820181905560028201556003016112f9565b5090565b80356001600160a01b038116811461134057600080fd5b919050565b600060208284031215611356578081fd5b61135f82611329565b9392505050565b60008060408385031215611378578081fd5b61138183611329565b946020939093013593505050565b600080604083850312156113a1578182fd5b823591506113b160208401611329565b90509250929050565b600080600080600060a086880312156113d1578081fd5b85359450602086013593506113e860408701611329565b9250606086013591506113fd60808701611329565b90509295509295909350565b6000821982111561141c5761141c611472565b500190565b600081600019048311821515161561143b5761143b611472565b500290565b60008282101561145257611452611472565b500390565b600060001982141561146b5761146b611472565b5060010190565b634e487b7160e01b600052601160045260246000fdfea264697066735822122083dfc262dad778c14e410d60a7e662dea49dfadf8a6a2ab5fb2148d5bc22211f64736f6c63430008040033",
  "linkReferences": {},
  "deployedLinkReferences": {}
}