{
  "_format": "hh-sol-artifact-1",
  "contractName": "AuctionV1",
  "sourceName": "contracts/AuctionV1.sol",
  "abi": [
    {
      "inputs": [],
      "stateMutability": "nonpayable",
      "type": "constructor"
    },
    {
      "anonymous": false,
      "inputs": [
        {
          "indexed": true,
          "internalType": "address",
          "name": "previousOwner",
          "type": "address"
        },
        {
          "indexed": true,
          "internalType": "address",
          "name": "newOwner",
          "type": "address"
        }
      ],
      "name": "OwnershipTransferred",
      "type": "event"
    },
    {
      "inputs": [
        {
          "internalType": "uint256",
          "name": "_tokenId",
          "type": "uint256"
        },
        {
          "internalType": "address",
          "name": "_nftContract",
          "type": "address"
        }
      ],
      "name": "_checkAuctionStatus",
      "outputs": [
        {
          "internalType": "bool",
          "name": "",
          "type": "bool"
        }
      ],
      "stateMutability": "view",
      "type": "function"
    },
    {
      "inputs": [
        {
          "internalType": "address",
          "name": "_nftContract",
          "type": "address"
        },
        {
          "internalType": "uint256",
          "name": "_tokenId",
          "type": "uint256"
        }
      ],
      "name": "_updateStatus",
      "outputs": [],
      "stateMutability": "nonpayable",
      "type": "function"
    },
    {
      "inputs": [
        {
          "internalType": "address",
          "name": "_nftContract",
          "type": "address"
        },
        {
          "internalType": "uint256",
          "name": "_tokenId",
          "type": "uint256"
        }
      ],
      "name": "bid",
      "outputs": [],
      "stateMutability": "payable",
      "type": "function"
    },
    {
      "inputs": [
        {
          "internalType": "address",
          "name": "_nftContract",
          "type": "address"
        },
        {
          "internalType": "uint256",
          "name": "_tokenId",
          "type": "uint256"
        }
      ],
      "name": "canSell",
      "outputs": [
        {
          "internalType": "bool",
          "name": "",
          "type": "bool"
        }
      ],
      "stateMutability": "view",
      "type": "function"
    },
    {
      "inputs": [
        {
          "internalType": "uint256",
          "name": "_tokenId",
          "type": "uint256"
        },
        {
          "internalType": "address",
          "name": "_nftContract",
          "type": "address"
        },
        {
          "internalType": "address",
          "name": "_msgSender",
          "type": "address"
        }
      ],
      "name": "concludeAuction",
      "outputs": [],
      "stateMutability": "payable",
      "type": "function"
    },
    {
      "inputs": [
        {
          "internalType": "uint256",
          "name": "_basePrice",
          "type": "uint256"
        },
        {
          "internalType": "uint256",
          "name": "_endingUnix",
          "type": "uint256"
        },
        {
          "internalType": "address",
          "name": "_nftContract",
          "type": "address"
        },
        {
          "internalType": "uint256",
          "name": "_tokenId",
          "type": "uint256"
        },
        {
          "internalType": "address",
          "name": "_msgSender",
          "type": "address"
        }
      ],
      "name": "createAuction",
      "outputs": [
        {
          "internalType": "uint256",
          "name": "",
          "type": "uint256"
        }
      ],
      "stateMutability": "nonpayable",
      "type": "function"
    },
    {
      "inputs": [],
      "name": "end",
      "outputs": [
        {
          "internalType": "bool",
          "name": "",
          "type": "bool"
        }
      ],
      "stateMutability": "view",
      "type": "function"
    },
    {
      "inputs": [
        {
          "internalType": "address",
          "name": "_nftContract",
          "type": "address"
        },
        {
          "internalType": "uint256",
          "name": "_tokenId",
          "type": "uint256"
        }
      ],
      "name": "getAuctionEnded",
      "outputs": [
        {
          "internalType": "bool",
          "name": "",
          "type": "bool"
        }
      ],
      "stateMutability": "nonpayable",
      "type": "function"
    },
    {
      "inputs": [],
      "name": "getCurrentTime",
      "outputs": [
        {
          "internalType": "uint256",
          "name": "",
          "type": "uint256"
        }
      ],
      "stateMutability": "view",
      "type": "function"
    },
    {
      "inputs": [
        {
          "internalType": "address",
          "name": "_nftContract",
          "type": "address"
        },
        {
          "internalType": "uint256",
          "name": "_tokenId",
          "type": "uint256"
        }
      ],
      "name": "getHighestBid",
      "outputs": [
        {
          "internalType": "uint256",
          "name": "",
          "type": "uint256"
        }
      ],
      "stateMutability": "view",
      "type": "function"
    },
    {
      "inputs": [
        {
          "internalType": "address",
          "name": "_nftContract",
          "type": "address"
        },
        {
          "internalType": "uint256",
          "name": "_tokenId",
          "type": "uint256"
        }
      ],
      "name": "getHighestBidder",
      "outputs": [
        {
          "internalType": "address",
          "name": "",
          "type": "address"
        }
      ],
      "stateMutability": "view",
      "type": "function"
    },
    {
      "inputs": [
        {
          "internalType": "address",
          "name": "_nftContract",
          "type": "address"
        },
        {
          "internalType": "uint256",
          "name": "_tokenId",
          "type": "uint256"
        }
      ],
      "name": "getLastTime",
      "outputs": [
        {
          "internalType": "uint256",
          "name": "",
          "type": "uint256"
        }
      ],
      "stateMutability": "view",
      "type": "function"
    },
    {
      "inputs": [],
      "name": "getPendingReturns",
      "outputs": [
        {
          "internalType": "uint256",
          "name": "",
          "type": "uint256"
        }
      ],
      "stateMutability": "view",
      "type": "function"
    },
    {
      "inputs": [],
      "name": "owner",
      "outputs": [
        {
          "internalType": "address",
          "name": "",
          "type": "address"
        }
      ],
      "stateMutability": "view",
      "type": "function"
    },
    {
      "inputs": [],
      "name": "renounceOwnership",
      "outputs": [],
      "stateMutability": "nonpayable",
      "type": "function"
    },
    {
      "inputs": [
        {
          "internalType": "address",
          "name": "newOwner",
          "type": "address"
        }
      ],
      "name": "transferOwnership",
      "outputs": [],
      "stateMutability": "nonpayable",
      "type": "function"
    },
    {
      "inputs": [],
      "name": "up",
      "outputs": [
        {
          "internalType": "uint256",
          "name": "",
          "type": "uint256"
        }
      ],
      "stateMutability": "view",
      "type": "function"
    },
    {
      "inputs": [],
      "name": "withdraw",
      "outputs": [],
      "stateMutability": "payable",
      "type": "function"
    }
  ],
  "bytecode": "0x60806040523480156200001157600080fd5b506200001d336200002e565b62000028336200007e565b62000153565b600080546001600160a01b038381166001600160a01b0319831681178455604051919092169283917f8be0079c531659141344cd1fd0a4f28419497f9722a3daafe3b4186f6b6457e09190a35050565b6000546001600160a01b03163314620000de5760405162461bcd60e51b815260206004820181905260248201527f4f776e61626c653a2063616c6c6572206973206e6f7420746865206f776e657260448201526064015b60405180910390fd5b6001600160a01b038116620001455760405162461bcd60e51b815260206004820152602660248201527f4f776e61626c653a206e6577206f776e657220697320746865207a65726f206160448201526564647265737360d01b6064820152608401620000d5565b62000150816200002e565b50565b6116d380620001636000396000f3fe6080604052600436106101095760003560e01c8063a670a9b411610095578063d712c1e611610064578063d712c1e614610393578063eade7f1814610430578063efbe1c1c14610452578063f2fde38b1461046c578063f48efd7c1461048c57600080fd5b8063a670a9b4146102a1578063c217d4d61461033d578063c76659a11461035d578063d5a49e011461037d57600080fd5b8063715018a6116100dc578063715018a61461016d5780637665d51f146101825780637b0b6f21146101b25780638226508d146101d25780638da5cb5b1461026f57600080fd5b806329cb924d1461010e5780633ccfd60b146101305780634a5503381461013a57806359d667a51461015a575b600080fd5b34801561011a57600080fd5b50425b6040519081526020015b60405180910390f35b61013861049f565b005b34801561014657600080fd5b5061013861015536600461150b565b610538565b61013861016836600461150b565b6106e5565b34801561017957600080fd5b50610138610a61565b34801561018e57600080fd5b506101a261019d36600461150b565b610a97565b6040519015158152602001610127565b3480156101be57600080fd5b506101a26101cd366004611534565b610b26565b3480156101de57600080fd5b5061011d6101ed36600461150b565b6001600160a01b03918216600090815260036020818152604080842094845293815291839020835160e081018552815486168152600182015493810193909352600281015490941692820192909252908201546060820181905260048301546080830152600583015460a083015260069092015460ff16151560c09091015290565b34801561027b57600080fd5b506000546001600160a01b03165b6040516001600160a01b039091168152602001610127565b3480156102ad57600080fd5b506102896102bc36600461150b565b6001600160a01b03918216600090815260036020818152604080842094845293815291839020835160e0810185528154861681526001820154938101939093526002810154909416928201839052830154606082015260048301546080820152600583015460a082015260069092015460ff16151560c09092019190915290565b34801561034957600080fd5b5061011d61035836600461159a565b610c00565b34801561036957600080fd5b506101a261037836600461150b565b610df0565b34801561038957600080fd5b5061011d60015481565b34801561039f57600080fd5b5061011d6103ae36600461150b565b6001600160a01b03918216600090815260036020818152604080842094845293815291839020835160e081018552815486168152600182015493810193909352600281015490941692820192909252908201546060820152600482015460808201819052600583015460a083015260069092015460ff16151560c09091015290565b34801561043c57600080fd5b503360009081526006602052604090205461011d565b34801561045e57600080fd5b506002546101a29060ff1681565b34801561047857600080fd5b506101386104873660046114ea565b610eb3565b61013861049a36600461155f565b610f4e565b336000908152600660205260409020546104f45760405162461bcd60e51b81526020600482015260116024820152704e6f20546f6b656e732070656e64696e6760781b60448201526064015b60405180910390fd5b33600081815260066020526040808220549051909291829184156108fc0291859190818181858888f19350505050158015610533573d6000803e3d6000fd5b505050565b600180549060006105488361166c565b90915550506001600160a01b038083166000908152600360208181526040808420868552825292839020835160e081018552815486168152600182015492810192909252600281015490941692810192909252820154606082015260048201546080820152600582015460a082015260069091015460ff1615801560c083015261060d5760405162461bcd60e51b8152602060048201526016602482015275151a1a5cc8185d58dd1a5bdb881a185cc8115b99195960521b60448201526064016104eb565b6001600160a01b038316600090815260036020908152604080832085845290915290206004015442111561064c57600160c082015261064c83836111d1565b6001600160a01b03928316600090815260036020818152604080842095845294815291849020835181546001600160a01b03199081169188169190911782559284015160018201559383015160028501805490931695169490941790556060810151928201929092556080820151600482015560a0820151600582015560c0909101516006909101805460ff1916911515919091179055565b6001600160a01b038083166000908152600360208181526040808420868552825292839020835160e081018552815486168152600182015492810192909252600281015490941692810192909252820154606082015260048201546080820152600582015460a082015260069091015460ff1615801560c08301526107a05760405162461bcd60e51b8152602060048201526011602482015270105d58dd1a5bdb881a185cc8195b991959607a1b60448201526064016104eb565b80516001600160a01b03166107f05760405162461bcd60e51b8152602060048201526016602482015275105d58dd1a5bdb88191bd95cc81b9bdd08195e1a5cdd60521b60448201526064016104eb565b60c08101516002805460ff19169115159190911790556108108383610538565b8060800151421015610533573360009081526004602090815260408083206001600160a01b03871684528252808320858452909152902054610852813461161e565b82606001511080156108715750610869813461161e565b826020015111155b6108b65760405162461bcd60e51b8152602060048201526016602482015275506c656173652073656e64206d6f72652066756e647360501b60448201526064016104eb565b81516001600160a01b031633141561091b5760405162461bcd60e51b815260206004820152602260248201527f596f752063616e6e6f742062696420696e20796f7572206f776e20617563746960448201526137b760f11b60648201526084016104eb565b610925348261161e565b3360008181526004602090815260408083206001600160a01b038a168085529083528184208985528352818420869055606088810187905288830186905290845260058352818420898552909252918290208251918201909252929350919081906001600160a01b0390811682526020808301959095524260409283015283546001808201865560009586528686208551600393840290910180546001600160a01b0319908116928616929092178155868901518184015595850151600296870155998316865281875283862098865297865293829020865181548a16908316178155948601519685019690965584015190830180549096169416939093179093556060810151918301919091556080810151600483015560a0810151600583015560c001516006909101805460ff1916911515919091179055565b6000546001600160a01b03163314610a8b5760405162461bcd60e51b81526004016104eb906115e9565b610a956000611431565b565b6001600160a01b0380831660009081526003602081815260408084208685528252808420815160e08101835281548716815260018201549381019390935260028101549095169082015290830154606082015260048301546080820152600583015460a082015260069092015460ff16151560c083015290610b198484610538565b60c0015190505b92915050565b6001600160a01b0380821660009081526003602081815260408084208785528252808420815160e0810183528154871680825260018301549482019490945260028201549096169186019190915291820154606085015260048201546080850152600582015460a085015260069091015460ff16151560c0840152909190610b195760405162461bcd60e51b815260206004820152602760248201527f41756374696f6e20666f722074686973204e4654206973206e6f7420696e2070604482015266726f677265737360c81b60648201526084016104eb565b600080546001600160a01b03163314610c2b5760405162461bcd60e51b81526004016104eb906115e9565b6001600160a01b038416600090815260036020908152604080832086845290915290206005015415610c9f5760405162461bcd60e51b815260206004820152601f60248201527f5468652041756374696f6e2068617320616c726561647920737461727465640060448201526064016104eb565b610caa856001611636565b9450610cb6854261161e565b94506009610cc44287611655565b1015610d2f5760405162461bcd60e51b815260206004820152603460248201527f54686520656e64696e6720756e69782073686f756c642062652061746c656173604482015273742035206d696e757465732066726f6d206e6f7760601b60648201526084016104eb565b506040805160e0810182526001600160a01b039283168152602080820197885260008284018181526060840182815260808501998a524260a0860190815260c08601848152998816845260038086528785209985529890945294909120925183549086166001600160a01b031991821617845598516001840155516002830180549190951698169790971790925551918101919091559151600483015591516005820181905591516006909101805491151560ff1990921691909117905590565b600080546001600160a01b03163314610e1b5760405162461bcd60e51b81526004016104eb906115e9565b6001600160a01b038084166000908152600360208181526040808420878552825292839020835160e0810185528154861681526001820154928101929092526002810154909416928101929092528201546060820152600482015460808201819052600583015460a083015260069092015460ff16151560c082015290421115610ea9576001915050610b20565b6000915050610b20565b6000546001600160a01b03163314610edd5760405162461bcd60e51b81526004016104eb906115e9565b6001600160a01b038116610f425760405162461bcd60e51b815260206004820152602660248201527f4f776e61626c653a206e6577206f776e657220697320746865207a65726f206160448201526564647265737360d01b60648201526084016104eb565b610f4b81611431565b50565b6000546001600160a01b03163314610f785760405162461bcd60e51b81526004016104eb906115e9565b6001600160a01b038083166000908152600360208181526040808420888552808352818520825160e08101845281548816808252600183015482870152600283015489169482019490945294810154606086015260048101546080860152600581015460a08601526006015460ff16151560c085015293889052929052918316148061102e57506001600160a01b0380841660009081526003602090815260408083208884529091529020600201548382169116145b6110915760405162461bcd60e51b815260206004820152602e60248201527f596f7520617265206e6f7420617574686f72697a656420746f20636f6e636c7560448201526d3232903a34329030bab1ba34b7b760911b60648201526084016104eb565b428160800151106110dd5760405162461bcd60e51b815260206004820152601660248201527541756374696f6e2054696d652072656d61696e696e6760501b60448201526064016104eb565b60006110e98585610b26565b9050806110fa576110fa8486610538565b6001600160a01b03841660008181526003602081815260408084208a8552825280842080546001600160a01b031990811682556001820186905560028201805490911690559283018490556004830184905560058084018590556006909301805460ff19169055938352908152828220888352905290812061117b91611481565b60008260600151600161118e9190611636565b83516040519192506001600160a01b03169082156108fc029083906000818181858888f193505050501580156111c8573d6000803e3d6000fd5b50505050505050565b6001600160a01b0382166000908152600560209081526040808320848452825280832080548251818502810185019093528083529192909190849084015b82821015611264576000848152602090819020604080516060810182526003860290920180546001600160a01b031683526001808201548486015260029091015491830191909152908352909201910161120f565b505050506001600160a01b0384811660009081526003602081815260408084208885528252808420815160e08101835281548716815260018201549381019390935260028101549095169082015290830154606082015260048301546080820152600583015460a082015260069092015460ff16151560c0830152919250905b600183516112f29190611655565b811161142a57816060015183828151811061131d57634e487b7160e01b600052603260045260246000fd5b60200260200101516020015114611418576004600084838151811061135257634e487b7160e01b600052603260045260246000fd5b6020026020010151600001516001600160a01b03166001600160a01b031681526020019081526020016000206000866001600160a01b03166001600160a01b03168152602001908152602001600020600085815260200190815260200160002054600660008584815181106113d757634e487b7160e01b600052603260045260246000fd5b6020026020010151600001516001600160a01b03166001600160a01b031681526020019081526020016000206000828254611412919061161e565b90915550505b806114228161166c565b9150506112e4565b5050505050565b600080546001600160a01b038381166001600160a01b0319831681178455604051919092169283917f8be0079c531659141344cd1fd0a4f28419497f9722a3daafe3b4186f6b6457e09190a35050565b5080546000825560030290600052602060002090810190610f4b91905b808211156114ca5780546001600160a01b0319168155600060018201819055600282015560030161149e565b5090565b80356001600160a01b03811681146114e557600080fd5b919050565b6000602082840312156114fb578081fd5b611504826114ce565b9392505050565b6000806040838503121561151d578081fd5b611526836114ce565b946020939093013593505050565b60008060408385031215611546578182fd5b82359150611556602084016114ce565b90509250929050565b600080600060608486031215611573578081fd5b83359250611583602085016114ce565b9150611591604085016114ce565b90509250925092565b600080600080600060a086880312156115b1578081fd5b85359450602086013593506115c8604087016114ce565b9250606086013591506115dd608087016114ce565b90509295509295909350565b6020808252818101527f4f776e61626c653a2063616c6c6572206973206e6f7420746865206f776e6572604082015260600190565b6000821982111561163157611631611687565b500190565b600081600019048311821515161561165057611650611687565b500290565b60008282101561166757611667611687565b500390565b600060001982141561168057611680611687565b5060010190565b634e487b7160e01b600052601160045260246000fdfea26469706673582212207bf25f81dd58016d306f0b914dfa83142cac419b368ae1d8186b14c02c8d47e764736f6c63430008040033",
  "linkReferences": {},
  "deployedLinkReferences": {}
}