{
  "_format": "hh-sol-artifact-1",
  "contractName": "Collection",
  "sourceName": "contracts/Collection.sol",
  "abi": [
    {
      "inputs": [
        {
          "internalType": "address",
          "name": "marketplaceAddress",
          "type": "address"
        },
        {
          "internalType": "string",
          "name": "name",
          "type": "string"
        },
        {
          "internalType": "string",
          "name": "symbol",
          "type": "string"
        },
        {
          "internalType": "string",
          "name": "baseURI_",
          "type": "string"
        },
        {
          "internalType": "address",
          "name": "newOwner",
          "type": "address"
        }
      ],
      "stateMutability": "nonpayable",
      "type": "constructor"
    },
    {
      "anonymous": false,
      "inputs": [
        {
          "indexed": true,
          "internalType": "address",
          "name": "owner",
          "type": "address"
        },
        {
          "indexed": true,
          "internalType": "address",
          "name": "approved",
          "type": "address"
        },
        {
          "indexed": true,
          "internalType": "uint256",
          "name": "tokenId",
          "type": "uint256"
        }
      ],
      "name": "Approval",
      "type": "event"
    },
    {
      "anonymous": false,
      "inputs": [
        {
          "indexed": true,
          "internalType": "address",
          "name": "owner",
          "type": "address"
        },
        {
          "indexed": true,
          "internalType": "address",
          "name": "operator",
          "type": "address"
        },
        {
          "indexed": false,
          "internalType": "bool",
          "name": "approved",
          "type": "bool"
        }
      ],
      "name": "ApprovalForAll",
      "type": "event"
    },
    {
      "anonymous": false,
      "inputs": [
        {
          "indexed": true,
          "internalType": "address",
          "name": "previousOwner",
          "type": "address"
        },
        {
          "indexed": true,
          "internalType": "address",
          "name": "newOwner",
          "type": "address"
        }
      ],
      "name": "OwnershipTransferred",
      "type": "event"
    },
    {
      "anonymous": false,
      "inputs": [
        {
          "indexed": true,
          "internalType": "address",
          "name": "from",
          "type": "address"
        },
        {
          "indexed": true,
          "internalType": "address",
          "name": "to",
          "type": "address"
        },
        {
          "indexed": true,
          "internalType": "uint256",
          "name": "tokenId",
          "type": "uint256"
        }
      ],
      "name": "Transfer",
      "type": "event"
    },
    {
      "inputs": [
        {
          "internalType": "address",
          "name": "to",
          "type": "address"
        },
        {
          "internalType": "uint256",
          "name": "tokenId",
          "type": "uint256"
        }
      ],
      "name": "approve",
      "outputs": [],
      "stateMutability": "nonpayable",
      "type": "function"
    },
    {
      "inputs": [
        {
          "internalType": "address",
          "name": "owner",
          "type": "address"
        }
      ],
      "name": "balanceOf",
      "outputs": [
        {
          "internalType": "uint256",
          "name": "",
          "type": "uint256"
        }
      ],
      "stateMutability": "view",
      "type": "function"
    },
    {
      "inputs": [],
      "name": "baseURI",
      "outputs": [
        {
          "internalType": "string",
          "name": "",
          "type": "string"
        }
      ],
      "stateMutability": "view",
      "type": "function"
    },
    {
      "inputs": [
        {
          "internalType": "string",
          "name": "tokenURI",
          "type": "string"
        }
      ],
      "name": "createToken",
      "outputs": [
        {
          "internalType": "uint256",
          "name": "",
          "type": "uint256"
        }
      ],
      "stateMutability": "nonpayable",
      "type": "function"
    },
    {
      "inputs": [
        {
          "internalType": "uint256",
          "name": "tokenId",
          "type": "uint256"
        }
      ],
      "name": "getApproved",
      "outputs": [
        {
          "internalType": "address",
          "name": "",
          "type": "address"
        }
      ],
      "stateMutability": "view",
      "type": "function"
    },
    {
      "inputs": [
        {
          "internalType": "address",
          "name": "owner",
          "type": "address"
        },
        {
          "internalType": "address",
          "name": "operator",
          "type": "address"
        }
      ],
      "name": "isApprovedForAll",
      "outputs": [
        {
          "internalType": "bool",
          "name": "",
          "type": "bool"
        }
      ],
      "stateMutability": "view",
      "type": "function"
    },
    {
      "inputs": [],
      "name": "name",
      "outputs": [
        {
          "internalType": "string",
          "name": "",
          "type": "string"
        }
      ],
      "stateMutability": "view",
      "type": "function"
    },
    {
      "inputs": [],
      "name": "owner",
      "outputs": [
        {
          "internalType": "address",
          "name": "",
          "type": "address"
        }
      ],
      "stateMutability": "view",
      "type": "function"
    },
    {
      "inputs": [
        {
          "internalType": "uint256",
          "name": "tokenId",
          "type": "uint256"
        }
      ],
      "name": "ownerOf",
      "outputs": [
        {
          "internalType": "address",
          "name": "",
          "type": "address"
        }
      ],
      "stateMutability": "view",
      "type": "function"
    },
    {
      "inputs": [],
      "name": "renounceOwnership",
      "outputs": [],
      "stateMutability": "nonpayable",
      "type": "function"
    },
    {
      "inputs": [
        {
          "internalType": "address",
          "name": "from",
          "type": "address"
        },
        {
          "internalType": "address",
          "name": "to",
          "type": "address"
        },
        {
          "internalType": "uint256",
          "name": "tokenId",
          "type": "uint256"
        }
      ],
      "name": "safeTransferFrom",
      "outputs": [],
      "stateMutability": "nonpayable",
      "type": "function"
    },
    {
      "inputs": [
        {
          "internalType": "address",
          "name": "from",
          "type": "address"
        },
        {
          "internalType": "address",
          "name": "to",
          "type": "address"
        },
        {
          "internalType": "uint256",
          "name": "tokenId",
          "type": "uint256"
        },
        {
          "internalType": "bytes",
          "name": "_data",
          "type": "bytes"
        }
      ],
      "name": "safeTransferFrom",
      "outputs": [],
      "stateMutability": "nonpayable",
      "type": "function"
    },
    {
      "inputs": [
        {
          "internalType": "address",
          "name": "operator",
          "type": "address"
        },
        {
          "internalType": "bool",
          "name": "approved",
          "type": "bool"
        }
      ],
      "name": "setApprovalForAll",
      "outputs": [],
      "stateMutability": "nonpayable",
      "type": "function"
    },
    {
      "inputs": [
        {
          "internalType": "bytes4",
          "name": "interfaceId",
          "type": "bytes4"
        }
      ],
      "name": "supportsInterface",
      "outputs": [
        {
          "internalType": "bool",
          "name": "",
          "type": "bool"
        }
      ],
      "stateMutability": "view",
      "type": "function"
    },
    {
      "inputs": [],
      "name": "symbol",
      "outputs": [
        {
          "internalType": "string",
          "name": "",
          "type": "string"
        }
      ],
      "stateMutability": "view",
      "type": "function"
    },
    {
      "inputs": [
        {
          "internalType": "uint256",
          "name": "tokenId",
          "type": "uint256"
        }
      ],
      "name": "tokenURI",
      "outputs": [
        {
          "internalType": "string",
          "name": "",
          "type": "string"
        }
      ],
      "stateMutability": "view",
      "type": "function"
    },
    {
      "inputs": [
        {
          "internalType": "address",
          "name": "from",
          "type": "address"
        },
        {
          "internalType": "address",
          "name": "to",
          "type": "address"
        },
        {
          "internalType": "uint256",
          "name": "tokenId",
          "type": "uint256"
        }
      ],
      "name": "transferFrom",
      "outputs": [],
      "stateMutability": "nonpayable",
      "type": "function"
    },
    {
      "inputs": [
        {
          "internalType": "address",
          "name": "newOwner",
          "type": "address"
        }
      ],
      "name": "transferOwnership",
      "outputs": [],
      "stateMutability": "nonpayable",
      "type": "function"
    }
  ],
  "bytecode": "0x60806040523480156200001157600080fd5b5060405162001dde38038062001dde833981016040819052620000349162000371565b848484848282816000908051906020019062000052929190620001fb565b50805162000068906001906020840190620001fb565b5050600880546001600160a01b0319166001600160a01b0387161790555080516200009b906009906020840190620001fb565b5050505050620000ba620000b4620000d060201b60201c565b620000d4565b620000c58162000126565b505050505062000478565b3390565b600a80546001600160a01b038381166001600160a01b0319831681179093556040519116919082907f8be0079c531659141344cd1fd0a4f28419497f9722a3daafe3b4186f6b6457e090600090a35050565b600a546001600160a01b03163314620001865760405162461bcd60e51b815260206004820181905260248201527f4f776e61626c653a2063616c6c6572206973206e6f7420746865206f776e657260448201526064015b60405180910390fd5b6001600160a01b038116620001ed5760405162461bcd60e51b815260206004820152602660248201527f4f776e61626c653a206e6577206f776e657220697320746865207a65726f206160448201526564647265737360d01b60648201526084016200017d565b620001f881620000d4565b50565b828054620002099062000425565b90600052602060002090601f0160209004810192826200022d576000855562000278565b82601f106200024857805160ff191683800117855562000278565b8280016001018555821562000278579182015b82811115620002785782518255916020019190600101906200025b565b50620002869291506200028a565b5090565b5b808211156200028657600081556001016200028b565b80516001600160a01b0381168114620002b957600080fd5b919050565b600082601f830112620002cf578081fd5b81516001600160401b0380821115620002ec57620002ec62000462565b604051601f8301601f19908116603f0116810190828211818310171562000317576200031762000462565b8160405283815260209250868385880101111562000333578485fd5b8491505b8382101562000356578582018301518183018401529082019062000337565b838211156200036757848385830101525b9695505050505050565b600080600080600060a0868803121562000389578081fd5b6200039486620002a1565b60208701519095506001600160401b0380821115620003b1578283fd5b620003bf89838a01620002be565b95506040880151915080821115620003d5578283fd5b620003e389838a01620002be565b94506060880151915080821115620003f9578283fd5b506200040888828901620002be565b9250506200041960808701620002a1565b90509295509295909350565b600181811c908216806200043a57607f821691505b602082108114156200045c57634e487b7160e01b600052602260045260246000fd5b50919050565b634e487b7160e01b600052604160045260246000fd5b61195680620004886000396000f3fe608060405234801561001057600080fd5b50600436106101165760003560e01c806370a08231116100a2578063a22cb46511610071578063a22cb4651461022e578063b88d4fde14610241578063c87b56dd14610254578063e985e9c514610267578063f2fde38b146102a357600080fd5b806370a08231146101fa578063715018a61461020d5780638da5cb5b1461021557806395d89b411461022657600080fd5b806323b872dd116100e957806323b872dd1461019857806342842e0e146101ab57806345576f94146101be5780636352211e146101df5780636c0360eb146101f257600080fd5b806301ffc9a71461011b57806306fdde0314610143578063081812fc14610158578063095ea7b314610183575b600080fd5b61012e6101293660046115d6565b6102b6565b60405190151581526020015b60405180910390f35b61014b610308565b60405161013a9190611704565b61016b610166366004611654565b61039a565b6040516001600160a01b03909116815260200161013a565b6101966101913660046115ad565b610427565b005b6101966101a63660046114bf565b61053d565b6101966101b93660046114bf565b61056e565b6101d16101cc36600461160e565b610589565b60405190815260200161013a565b61016b6101ed366004611654565b6105c4565b61014b61063b565b6101d1610208366004611473565b6106c9565b610196610750565b600a546001600160a01b031661016b565b61014b610786565b61019661023c366004611573565b610795565b61019661024f3660046114fa565b6107a4565b61014b610262366004611654565b6107dc565b61012e61027536600461148d565b6001600160a01b03918216600090815260056020908152604080832093909416825291909152205460ff1690565b6101966102b1366004611473565b610946565b60006001600160e01b031982166380ac58cd60e01b14806102e757506001600160e01b03198216635b5e139f60e01b145b8061030257506301ffc9a760e01b6001600160e01b03198316145b92915050565b6060600080546103179061185e565b80601f01602080910402602001604051908101604052809291908181526020018280546103439061185e565b80156103905780601f1061036557610100808354040283529160200191610390565b820191906000526020600020905b81548152906001019060200180831161037357829003601f168201915b5050505050905090565b60006103a5826109e1565b61040b5760405162461bcd60e51b815260206004820152602c60248201527f4552433732313a20617070726f76656420717565727920666f72206e6f6e657860448201526b34b9ba32b73a103a37b5b2b760a11b60648201526084015b60405180910390fd5b506000908152600460205260409020546001600160a01b031690565b6000610432826105c4565b9050806001600160a01b0316836001600160a01b031614156104a05760405162461bcd60e51b815260206004820152602160248201527f4552433732313a20617070726f76616c20746f2063757272656e74206f776e656044820152603960f91b6064820152608401610402565b336001600160a01b03821614806104bc57506104bc8133610275565b61052e5760405162461bcd60e51b815260206004820152603860248201527f4552433732313a20617070726f76652063616c6c6572206973206e6f74206f7760448201527f6e6572206e6f7220617070726f76656420666f7220616c6c00000000000000006064820152608401610402565b61053883836109fe565b505050565b6105473382610a6c565b6105635760405162461bcd60e51b81526004016104029061179e565b610538838383610b52565b610538838383604051806020016040528060008152506107a4565b600a546000906001600160a01b031633146105b65760405162461bcd60e51b815260040161040290611769565b61030282610cf2565b919050565b6000818152600260205260408120546001600160a01b0316806103025760405162461bcd60e51b815260206004820152602960248201527f4552433732313a206f776e657220717565727920666f72206e6f6e657869737460448201526832b73a103a37b5b2b760b91b6064820152608401610402565b600980546106489061185e565b80601f01602080910402602001604051908101604052809291908181526020018280546106749061185e565b80156106c15780601f10610696576101008083540402835291602001916106c1565b820191906000526020600020905b8154815290600101906020018083116106a457829003601f168201915b505050505081565b60006001600160a01b0382166107345760405162461bcd60e51b815260206004820152602a60248201527f4552433732313a2062616c616e636520717565727920666f7220746865207a65604482015269726f206164647265737360b01b6064820152608401610402565b506001600160a01b031660009081526003602052604090205490565b600a546001600160a01b0316331461077a5760405162461bcd60e51b815260040161040290611769565b6107846000610d3a565b565b6060600180546103179061185e565b6107a0338383610d8c565b5050565b6107ae3383610a6c565b6107ca5760405162461bcd60e51b81526004016104029061179e565b6107d684848484610e5b565b50505050565b60606107e7826109e1565b61084d5760405162461bcd60e51b815260206004820152603160248201527f45524337323155524953746f726167653a2055524920717565727920666f72206044820152703737b732bc34b9ba32b73a103a37b5b2b760791b6064820152608401610402565b600082815260066020526040812080546108669061185e565b80601f01602080910402602001604051908101604052809291908181526020018280546108929061185e565b80156108df5780601f106108b4576101008083540402835291602001916108df565b820191906000526020600020905b8154815290600101906020018083116108c257829003601f168201915b5050505050905060006108f0610e8e565b9050805160001415610903575092915050565b81511561093557808260405160200161091d929190611698565b60405160208183030381529060405292505050919050565b61093e84610e9d565b949350505050565b600a546001600160a01b031633146109705760405162461bcd60e51b815260040161040290611769565b6001600160a01b0381166109d55760405162461bcd60e51b815260206004820152602660248201527f4f776e61626c653a206e6577206f776e657220697320746865207a65726f206160448201526564647265737360d01b6064820152608401610402565b6109de81610d3a565b50565b6000908152600260205260409020546001600160a01b0316151590565b600081815260046020526040902080546001600160a01b0319166001600160a01b0384169081179091558190610a33826105c4565b6001600160a01b03167f8c5be1e5ebec7d5bd14f71427d1e84f3dd0314c0f7b2291e5b200ac8c7c3b92560405160405180910390a45050565b6000610a77826109e1565b610ad85760405162461bcd60e51b815260206004820152602c60248201527f4552433732313a206f70657261746f7220717565727920666f72206e6f6e657860448201526b34b9ba32b73a103a37b5b2b760a11b6064820152608401610402565b6000610ae3836105c4565b9050806001600160a01b0316846001600160a01b03161480610b1e5750836001600160a01b0316610b138461039a565b6001600160a01b0316145b8061093e57506001600160a01b0380821660009081526005602090815260408083209388168352929052205460ff1661093e565b826001600160a01b0316610b65826105c4565b6001600160a01b031614610bcd5760405162461bcd60e51b815260206004820152602960248201527f4552433732313a207472616e73666572206f6620746f6b656e2074686174206960448201526839903737ba1037bbb760b91b6064820152608401610402565b6001600160a01b038216610c2f5760405162461bcd60e51b8152602060048201526024808201527f4552433732313a207472616e7366657220746f20746865207a65726f206164646044820152637265737360e01b6064820152608401610402565b610c3a6000826109fe565b6001600160a01b0383166000908152600360205260408120805460019290610c6390849061181b565b90915550506001600160a01b0382166000908152600360205260408120805460019290610c919084906117ef565b909155505060008181526002602052604080822080546001600160a01b0319166001600160a01b0386811691821790925591518493918716917fddf252ad1be2c89b69c2b068fc378daa952ba7f163c4a11628f55a4df523b3ef91a4505050565b6000610d02600780546001019055565b6000610d0d60075490565b9050610d193382610f68565b610d23818461109b565b600854610302906001600160a01b03166001610795565b600a80546001600160a01b038381166001600160a01b0319831681179093556040519116919082907f8be0079c531659141344cd1fd0a4f28419497f9722a3daafe3b4186f6b6457e090600090a35050565b816001600160a01b0316836001600160a01b03161415610dee5760405162461bcd60e51b815260206004820152601960248201527f4552433732313a20617070726f766520746f2063616c6c6572000000000000006044820152606401610402565b6001600160a01b03838116600081815260056020908152604080832094871680845294825291829020805460ff191686151590811790915591519182527f17307eab39ab6107e8899845ad3d59bd9653f200f220920489ca2b5937696c31910160405180910390a3505050565b610e66848484610b52565b610e7284848484611126565b6107d65760405162461bcd60e51b815260040161040290611717565b6060600980546103179061185e565b6060610ea8826109e1565b610f0c5760405162461bcd60e51b815260206004820152602f60248201527f4552433732314d657461646174613a2055524920717565727920666f72206e6f60448201526e3732bc34b9ba32b73a103a37b5b2b760891b6064820152608401610402565b6000610f16610e8e565b90506000815111610f365760405180602001604052806000815250610f61565b80610f4084611233565b604051602001610f51929190611698565b6040516020818303038152906040525b9392505050565b6001600160a01b038216610fbe5760405162461bcd60e51b815260206004820181905260248201527f4552433732313a206d696e7420746f20746865207a65726f20616464726573736044820152606401610402565b610fc7816109e1565b156110145760405162461bcd60e51b815260206004820152601c60248201527f4552433732313a20746f6b656e20616c7265616479206d696e746564000000006044820152606401610402565b6001600160a01b038216600090815260036020526040812080546001929061103d9084906117ef565b909155505060008181526002602052604080822080546001600160a01b0319166001600160a01b03861690811790915590518392907fddf252ad1be2c89b69c2b068fc378daa952ba7f163c4a11628f55a4df523b3ef908290a45050565b6110a4826109e1565b6111075760405162461bcd60e51b815260206004820152602e60248201527f45524337323155524953746f726167653a2055524920736574206f66206e6f6e60448201526d32bc34b9ba32b73a103a37b5b2b760911b6064820152608401610402565b600082815260066020908152604090912082516105389284019061134d565b60006001600160a01b0384163b1561122857604051630a85bd0160e11b81526001600160a01b0385169063150b7a029061116a9033908990889088906004016116c7565b602060405180830381600087803b15801561118457600080fd5b505af19250505080156111b4575060408051601f3d908101601f191682019092526111b1918101906115f2565b60015b61120e573d8080156111e2576040519150601f19603f3d011682016040523d82523d6000602084013e6111e7565b606091505b5080516112065760405162461bcd60e51b815260040161040290611717565b805181602001fd5b6001600160e01b031916630a85bd0160e11b14905061093e565b506001949350505050565b6060816112575750506040805180820190915260018152600360fc1b602082015290565b8160005b8115611281578061126b81611899565b915061127a9050600a83611807565b915061125b565b60008167ffffffffffffffff8111156112aa57634e487b7160e01b600052604160045260246000fd5b6040519080825280601f01601f1916602001820160405280156112d4576020820181803683370190505b5090505b841561093e576112e960018361181b565b91506112f6600a866118b4565b6113019060306117ef565b60f81b81838151811061132457634e487b7160e01b600052603260045260246000fd5b60200101906001600160f81b031916908160001a905350611346600a86611807565b94506112d8565b8280546113599061185e565b90600052602060002090601f01602090048101928261137b57600085556113c1565b82601f1061139457805160ff19168380011785556113c1565b828001600101855582156113c1579182015b828111156113c15782518255916020019190600101906113a6565b506113cd9291506113d1565b5090565b5b808211156113cd57600081556001016113d2565b600067ffffffffffffffff80841115611401576114016118f4565b604051601f8501601f19908116603f01168101908282118183101715611429576114296118f4565b8160405280935085815286868601111561144257600080fd5b858560208301376000602087830101525050509392505050565b80356001600160a01b03811681146105bf57600080fd5b600060208284031215611484578081fd5b610f618261145c565b6000806040838503121561149f578081fd5b6114a88361145c565b91506114b66020840161145c565b90509250929050565b6000806000606084860312156114d3578081fd5b6114dc8461145c565b92506114ea6020850161145c565b9150604084013590509250925092565b6000806000806080858703121561150f578081fd5b6115188561145c565b93506115266020860161145c565b925060408501359150606085013567ffffffffffffffff811115611548578182fd5b8501601f81018713611558578182fd5b611567878235602084016113e6565b91505092959194509250565b60008060408385031215611585578182fd5b61158e8361145c565b9150602083013580151581146115a2578182fd5b809150509250929050565b600080604083850312156115bf578182fd5b6115c88361145c565b946020939093013593505050565b6000602082840312156115e7578081fd5b8135610f618161190a565b600060208284031215611603578081fd5b8151610f618161190a565b60006020828403121561161f578081fd5b813567ffffffffffffffff811115611635578182fd5b8201601f81018413611645578182fd5b61093e848235602084016113e6565b600060208284031215611665578081fd5b5035919050565b60008151808452611684816020860160208601611832565b601f01601f19169290920160200192915050565b600083516116aa818460208801611832565b8351908301906116be818360208801611832565b01949350505050565b6001600160a01b03858116825284166020820152604081018390526080606082018190526000906116fa9083018461166c565b9695505050505050565b602081526000610f61602083018461166c565b60208082526032908201527f4552433732313a207472616e7366657220746f206e6f6e20455243373231526560408201527131b2b4bb32b91034b6b83632b6b2b73a32b960711b606082015260800190565b6020808252818101527f4f776e61626c653a2063616c6c6572206973206e6f7420746865206f776e6572604082015260600190565b60208082526031908201527f4552433732313a207472616e736665722063616c6c6572206973206e6f74206f6040820152701ddb995c881b9bdc88185c1c1c9bdd9959607a1b606082015260800190565b60008219821115611802576118026118c8565b500190565b600082611816576118166118de565b500490565b60008282101561182d5761182d6118c8565b500390565b60005b8381101561184d578181015183820152602001611835565b838111156107d65750506000910152565b600181811c9082168061187257607f821691505b6020821081141561189357634e487b7160e01b600052602260045260246000fd5b50919050565b60006000198214156118ad576118ad6118c8565b5060010190565b6000826118c3576118c36118de565b500690565b634e487b7160e01b600052601160045260246000fd5b634e487b7160e01b600052601260045260246000fd5b634e487b7160e01b600052604160045260246000fd5b6001600160e01b0319811681146109de57600080fdfea2646970667358221220bc0744477c9494f7575857434aac01480b82ca55a301a03e66caf12e1511872564736f6c63430008040033",
  "linkReferences": {},
  "deployedLinkReferences": {}
}